:020000040800F2
:10000000005000206D160008691400086B140008E9
:100010006D1400086F14000871140008000000003F
:100020000000000000000000000000007314000841
:100030007514000800000000771400087914000807
:10004000B5160008B5160008B5160008B516000864
:10005000B5160008B5160008B5160008811400088A
:100060008B140008B5160008B5160008B516000870
:10007000B5160008B5160008B5160008B516000834
:10008000B5160008B5160008B5160008B516000824
:1000900095140008B5160008B5160008B516000836
:1000A000B5160008A5140008B5160008B516000816
:1000B000B5160008B5160008B5160008B5160008F4
:1000C000B5160008B5160008B5160008B5160008E4
:1000D000B5160008B5160008B5160008B5160008D4
:1000E000B5140008B5160008B51600080000000099
:1000F0000000000000000000000000000000000000
:0C01000000000000000000005FF808F1A3
:10010C0010B5054C237833B9044B13B10448AFF345
:10011C0000800123237010BD78080020000000002F
:10012C007C47000808B5034B1BB103490348AFF3E8
:10013C00008008BD000000007C0800207C470008FF
:10014C004FF0FF0C1CEAD0521EBF1CEAD15392EAAE
:10015C000C0F93EA0C0F6FD01A4480EA010C40028A
:10016C0018BF5FEA41211ED04FF0006343EA5010E4
:10017C0043EA5111A0FB01310CF00040B1F5000F26
:10018C003EBF490041EAD3715B0040EA010062F1D5
:10019C007F02FD2A1DD8B3F1004F40EBC25008BFBF
:1001AC0020F00100704790F0000F0CF0004C08BFDD
:1001BC0049024CEA502040EA51207F3AC2BFD2F1AA
:1001CC00FF0340EAC250704740F400004FF00003B8
:1001DC00013A5DDC12F1190FDCBF00F000407047F2
:1001EC00C2F10002410021FA02F1C2F1200200FA30
:1001FC0002FC5FEA310040F1000053EA4C0308BFF7
:10020C0020EADC70704792F0000F00F0004C02BF47
:10021C00400010F4000F013AF9D040EA0C0093F0C2
:10022C00000F01F0004C02BF490011F4000F013B1C
:10023C00F9D041EA0C018FE70CEAD15392EA0C0F8A
:10024C0018BF93EA0C0F0AD030F0004C18BF31F0F5
:10025C00004CD8D180EA010000F00040704790F0CB
:10026C00000F17BF90F0004F084691F0000F91F06F
:10027C00004F14D092EA0C0F01D142020FD193EA35
:10028C000C0F03D14B0218BF084608D180EA0100BD
:10029C0000F0004040F0FE4040F40000704740F099
:1002AC00FE4040F4400070474FEA4102B2F1E04397
:1002BC0024BFB3F5001CDCF1FE5C0DD901F0004C41
:1002CC004FEAC0024CEA5070B2F1004F40EB830091
:1002DC0008BF20F00100704711F0804F21D113F1BD
:1002EC003872BCBF01F00040704741F480114FEAF6
:1002FC005252C2F11802C2F1200C10FA0CF320FA7F
:10030C0002F018BF40F001004FEAC1234FEAD3239B
:10031C0003FA0CFC40EA0C0023FA02F34FEA430305
:10032C00CCE77FEA625307D150EA01331EBF4FF08E
:10033C00FE4040F44000704701F0004040F0FE40A9
:10034C0040F40000704700BF80F0004002E000BFA6
:10035C0081F0004142001FBF5FEA410392EA030FA4
:10036C007FEA226C7FEA236C6AD04FEA1262D2EBEE
:10037C001363C1BFD218414048404140B8BF5B42F3
:10038C00192B88BF704710F0004F40F4000020F08C
:10039C007F4018BF404211F0004F41F4000121F0A2
:1003AC007F4118BF494292EA030F3FD0A2F10102EC
:1003BC0041FA03FC10EB0C00C3F1200301FA03F12A
:1003CC0000F0004302D5494260EB4000B0F5000F4D
:1003DC0013D3B0F1807F06D340084FEA310102F10C
:1003EC000102FE2A51D2B1F1004F40EBC25008BFBE
:1003FC0020F0010040EA03007047490040EB000088
:10040C00013A28BFB0F5000FEDD2B0FA80FCACF188
:10041C00080CB2EB0C0200FA0CF0AABF00EBC250B5
:10042C0052421843BCBFD0401843704792F0000FA3
:10043C0081F4000106BF80F400000132013BB5E7F6
:10044C004FEA41037FEA226C18BF7FEA236C21D06C
:10045C0092EA030F04D092F0000F08BF08467047D1
:10046C0090EA010F1CBF0020704712F07F4F04D19F
:10047C00400028BF40F00040704712F100723CBFB2
:10048C0000F50000704700F0004343F0FE4040F4DC
:10049C00000070477FEA226216BF08467FEA23639A
:1004AC000146420206BF5FEA412390EA010F40F485
:1004BC00800070474FF0000304E000BF10F00043D1
:1004CC0048BF40425FEA000C08BF704743F09643B8
:1004DC0001464FF000001CE050EA010208BF7047D3
:1004EC004FF000030AE000BF50EA010208BF70475A
:1004FC0011F0004302D5404261EB41015FEA010C6F
:10050C0002BF84460146002043F0B64308BFA3F166
:10051C008053A3F50003BCFA8CF2083AA3EBC25348
:10052C0010DB01FA02FC634400FA02FCC2F1200267
:10053C00BCF1004F20FA02F243EB020008BF20F09E
:10054C000100704702F1200201FA02FCC2F1200204
:10055C0050EA4C0021FA02F243EB020008BF20EAF9
:10056C00DC7070474FF0FF3C06E000BF4FF0010C11
:10057C0002E000BF4FF0010C4DF804CD4FEA4002F1
:10058C004FEA41037FEA226C18BF7FEA236C11D03B
:10059C0001B052EA530C18BF90EA010F58BFB2EBEE
:1005AC00030088BFC81738BF6FEAE17018BF40F06E
:1005BC00010070477FEA226C02D15FEA402C05D122
:1005CC007FEA236CE4D15FEA412CE1D05DF8040BA7
:1005DC00704700BF844608466146FFE70FB5FFF73A
:1005EC00C9FF002848BF10F1000F0FBD4DF808EDF2
:1005FC00FFF7F4FF0CBF012000205DF808FB00BFE3
:10060C004DF808EDFFF7EAFF34BF012000205DF83C
:10061C0008FB00BF4DF808EDFFF7E0FF94BF012089
:10062C0000205DF808FB00BF4DF808EDFFF7D2FF86
:10063C0094BF012000205DF808FB00BF4DF808EDC9
:10064C00FFF7C8FF34BF012000205DF808FB00BF96
:10065C004FEA4002B2F1FE4F0FD34FF09E03B3EBC3
:10066C0012620DD94FEA002343F0004310F0004F03
:10067C0023FA02F018BF404270474FF00000704759
:10068C0012F1610F01D1420205D110F0004008BFF8
:10069C006FF0004070474FF00000704708B50C48F1
:1006AC000C4B03600823436000238360C3604FF44A
:1006BC00803202614361037643768376C376037797
:1006CC00437701F051F800B908BD00F0D5F9FBE70C
:1006DC00940800200064004010B586B000230293FB
:1006EC0003930493059302681A4B9A4201D006B007
:1006FC0010BD03F5D633DA6942F00072DA61DA69BB
:10070C0002F000720092009A9A6942F004029A6117
:10071C009B6903F004030193019B4FF40063029364
:10072C000D4C02A9204601F051FC4FF4805302936A
:10073C00022303930323059302A9204601F046FCF0
:10074C0000221146142001F0E7FB142001F01CFCE0
:10075C00CDE700BF006400400008014030B587B011
:10076C0000240294039404940594244B9A6942F057
:10077C0004029A619A6902F004020092009A9A6942
:10078C0042F008029A619B6903F008030193019BF4
:10079C001B4D22460321284601F02AFD0323029318
:1007AC000123039304940223059302A9284601F024
:1007BC000DFC40F606430293124B0393049402A9DA
:1007CC00114801F003FC22462146072001F0A4FB4E
:1007DC00072001F0D9FB22462146082001F09CFBA2
:1007EC00082001F0D1FB22462146282001F094FB81
:1007FC00282001F0C9FB07B030BD00BF001002403B
:10080C000008014000001110000C014008B50B4815
:10081C000B4B03600B4B436000238360C3604FF4AE
:10082C008042026143618361C361036201F06AFE2D
:10083C0000B908BD00F020F9FBE700BFBC080020A0
:10084C0000540040A086010010B586B0002302932E
:10085C000393049305930268114B9A4201D006B09E
:10086C0010BD104CA36943F00803A361A36903F006
:10087C0008030093009BC0230293122303930323CA
:10088C00059302A9084801F0A1FBE36943F40013A6
:10089C00E361E36903F400130193019BDFE700BFFD
:1008AC000054004000100240000C014008B5022822
:1008BC000BD0042810D0B0F5806F11D0B0F5006FBC
:1008CC000DD10B4B04221A6009E00121084B196071
:1008DC00084801F093FC02E0054B02221A6008BDA7
:1008EC00034B03221A60044B01221A60F7E700BF86
:1008FC00140900200008014010090020024B186860
:10090C0000221A60704700BF1409002010B504467D
:10091C00FFF7F4FF04280AD023681BB9022812D071
:10092C00012818D0012B1ED0022B30D010BD22680C
:10093C000132204B83FB0213A3EBE27303EB430363
:10094C00D31A2360E8E76268033202F0010248BF61
:10095C0052426260E6E76268013202F0010248BF6F
:10096C0052426260DEE7022809D00128DCD1A2687D
:10097C00013202F0010248BF5242A260D4E7A268E1
:10098C00033202F0010248BF5242A260CCE70128B8
:10099C0008D00228CAD14FF07E51E068FFF7DAFC8C
:1009AC00E060C3E74FF07E51E068FFF7D1FCE060F8
:1009BC00BCE700BF565555550268074B9A4200D00C
:1009CC00704700B589B0054B01AA002101F0A4F8CD
:1009DC0009B05DF804FB00BF00640040B8090020BA
:1009EC0038B5104C204600F03BF9B4F900500E4BD2
:1009FC00D3E90001FFF758FC04462846FFF75EFDDB
:100A0C0001460A4D2246284600F0C5FBE86BFFF76D
:100A1C001FFE00B200F060F9054A13880133138001
:100A2C0038BD00BFC8090020880900201809002023
:100A3C009009002010B58AB0012208920023069379
:100A4C00079244F22001009101934FF6E07102915C
:100A5C00039305920493074C6946204600F02AFF45
:100A6C00204600F0ADFF0221204601F000F90AB04B
:100A7C0010BD00BF9408002072B6FEE700B591B01F
:100A8C002822002106A802F0F3FD00230193029313
:100A9C000393049305930223069301220A921022D6
:100AAC000B920D934FF460130F9306A801F0D0FE38
:100ABC0080B90F23019302210291002303934FF479
:100ACC0080620492059301A802F002F920B911B0DA
:100ADC005DF804FBFFF7D0FFFFF7CEFF10B588B031
:100AEC0000F00AFEFFF7CAFFFFF738FEFFF7D6FD4E
:100AFC00FFF78CFE00F008FD00F05EFD164C204662
:100B0C0000F026FC00F022F900F054F9FFF792FFF8
:100B1C00124802F0E7F94FF0FF3307221049204644
:100B2C0002F09DFC0F4C104B0293104B0193104B99
:100B3C00009344F620631A460321204600F0EEFB96
:100B4C000C4B23650C4B0FCB08AC04E90F0004A82D
:100B5C0000F014F8FBE700BF3C0A0020F409002069
:100B6C00A44700081809002000005041CDCCCC3C13
:100B7C000000F04100409C4694470008F0B585B059
:100B8C000446FFF7C3FE2368012B4AD0022B51D039
:100B9C00002B3DD061682C4B1B78019310250095E0
:100BAC0004232A4A52F821200021284600F0E0F9BB
:100BBC00002600962B46264A3146402000F0A4F928
:100BCC00244F3B78019300950123A26831465820AD
:100BDC0000F0CEF900962B461F4A0221304600F059
:100BEC0093F91E4B1B780293019503230093042366
:100BFC00E2680221382000F009FA3B780193009555
:100C0C00012322680521582000F0B2F905B0F0BD8F
:100C1C000D4B01221A6000230E4A13600F4A136019
:100C2C00B8E70023084A13600A4A012111600B4AF5
:100C3C001360AFE70023044A1360064A1360074BA6
:100C4C0001221A60A6E700BF9C09002000000020CA
:100C5C00AC47000894090020B04700089809002010
:100C6C0030B50346B0F808C0A0F80AC0184C22787A
:100C7C00617841EA02210181A278E07840EA022001
:100C8C0000B2588018802579627942EA052212B2A6
:100C9C00104D85FB025ED217A2EB6E029A80A279F0
:100CAC009A71A1EB0C0CBCF5805F09DD1A69013A55
:100CBC001A611A6901EB42319A89891A596130BD5E
:100CCC001CF5805FF5DA1A6901321A61F1E700BF91
:100CDC00B80900206766666600B583B00A49002330
:100CEC008B60CB604FF400730B6008230B61074AD9
:100CFC0040FA03F31370507001AB054800F08EFE00
:100D0C0003B05DF804FB00BFA0090020C00900205F
:100D1C009408002010B584B000240EE04FF48073CA
:100D2C00029301230193074A224400920022782166
:100D3C00054801F0C5FC0134E4B21A2CEED904B01C
:100D4C0010BD00BF08000020BC08002008B5C8205A
:100D5C0000F0F6FCFFF7DEFF08BD000000B587B021
:100D6C008DF817004FF480730293012301930DF15A
:100D7C001702009200227821024801F0A1FC07B072
:100D8C005DF804FBBC08002000B587B08DF8170097
:100D9C004FF480730293012301930DF1170200921B
:100DAC0040227821024801F08BFC07B05DF804FB6F
:100DBC00BC08002038B5002509E00020FFF7E4FF4F
:100DCC000134E4B214F0800FF7D00135EDB2072DE9
:100DDC000CD8A5F15000C0B2FFF7C0FF0020FFF700
:100DEC00BDFF1020FFF7BAFF0024EBE738BD10B5AC
:100DFC000446A1F15000C0B2FFF7B0FF200940F04B
:100E0C001000FFF7ABFF04F00F00FFF7A7FF10BDBA
:100E1C000246012002E002FB00F019464B1EDBB239
:100E2C000029F8D1704700002DE9F04180460F46AB
:100E3C009DF81860203AD5B210F0800F07D1102B16
:100E4C000AD039464046FFF7D2FF002447E002376C
:100E5C00FFB24FF00008F2E739464046FFF7C7FFF4
:100E6C00002407E004EB0513254AD05CFFF78CFF48
:100E7C000134E4B2072C0AD8002EF3D004EB05138E
:100E8C001F4AD05CC043C0B2FFF77EFFF0E7791C6D
:100E9C00C9B24046FFF7ABFF002408E004EB051392
:100EAC000833174AD05CFFF76FFF0134E4B2072C0C
:100EBC0024D8002EF2D004EB05130833104AD05C72
:100ECC00C043C0B2FFF760FFEFE705EB45030D4AE7
:100EDC0002EB4303185DFFF757FF0134E4B2052C16
:100EEC000CD8002EF1D005EB4503064A02EB430368
:100EFC00185DC043C0B2FFF747FFEEE7BDE8F081D5
:100F0C00E0490008B84700082DE9F04383B00446D7
:100F1C000E4617461D469DF828804FF0000909E043
:100F2C000634E4B214E00136F6B2002409F10100F3
:100F3C005FFA80F917F80920B2B1CDF800802B4682
:100F4C0031462046FFF770FF0C2DE9D00834E4B28F
:100F5C007A2C01D90C2DE6D0782CE7D9102DE5D1BF
:100F6C000136F6B20024E1E703B0BDE8F0830000DF
:100F7C002DE9F04F83B08246894690461D469DF878
:100F8C0030609DF834B000273C461DE0700804FB2F
:100F9C0000F0C0B25044CDF800B033462022494690
:100FAC00C0B2FFF741FF0DE0700804FB00F0C0B2C7
:100FBC0030325044CDF800B03346D2B24946C0B2BC
:100FCC00FFF732FF0134E4B2AC421AD2291BC9B28A
:100FDC000139C9B20A20FFF71BFFB8FBF0F00A4A2F
:100FEC00A2FB0032D20802EB8202A0EB4202D2B288
:100FFC00002FD9D16B1E9C42D6DA002AC6D001270D
:10100C00D2E703B0BDE8F08FCDCCCCCC2DE9F04FBE
:10101C0085B007468846144602921D469DF83890C6
:10102C009DF83C609DF840A000211046FFF7E8FABF
:10103C0040B9002303930298FFF70AFB04464FF0D4
:10104C00000B2CE00135EDB204F1004202920123B9
:10105C000393F0E7A5EB0B01C9B20139C9B20A2021
:10106C00FFF7D6FEB4FBF0F03A4AA2FB0032D208EE
:10107C0002EB8202A0EB4202D2B2700800FB0BF032
:10108C00C0B230323844CDF800A03346D2B241461B
:10109C00C0B2FFF7C9FE0BF1010B5FFA8BFB5D458C
:1010AC00D8D84FEA560B05FB0BF0C0B23844CDF83C
:1010BC0000A033462E224146C0B2FFF7B5FE2046B3
:1010CC00FFF7FCF901460298FFF742F9044649463E
:1010DC000A20FFF79DFEFFF7EDF92146FFF730F8E8
:1010EC00FFF7B6FA0290002423E0A9EB0401C9B281
:1010FC000139C9B20A20FFF78BFE029BB3FBF0F05B
:10110C00144AA2FB0032D20802EB8202A0EB42028C
:10111C00D2B2281900FB0B70C0B230320530CDF8BA
:10112C0000A03346D2B24146C0B2FFF77DFE013477
:10113C00E4B24C45D9D3039B13B905B0BDE8F08F8D
:10114C00CDF800A033462D2241463846FFF76CFE01
:10115C00F3E700BFCDCCCCCC0366C2658165009BA8
:10116C000360019B4360029B836070470160426097
:10117C008360704738B505460C460068FFF75EFA89
:10118C0000B12C6004F1004421462868FFF738FABE
:10119C0000B12C6038BDF8B504461046216262617E
:1011AC00FFF7D6F80546E062266D00213046FFF7C2
:1011BC001DFA60B900212846FFF740FA00282ED00E
:1011CC0029463046FFF71CFA002840F0A380666DD4
:1011DC0000213046FFF70AFA58B900212846FFF7DC
:1011EC002DFAF8B129463046FFF728FA002840F0CE
:1011FC009380A36D032B18D0042B49D0A36A636290
:10120C00E36AA362E369A361236AE3612369E36090
:10121C0063692361A36D032B7AD0A06CF8BD05F133
:10122C000041CEE705F10041DDE721682846FEF7D5
:10123C0087FF206361682846FEF782FF0146606BDA
:10124C00FFF788F86063A668A16A2846FFF780F864
:10125C0001463046FEF774FFA063206EFFF72AF9B3
:10126C00014604F13400FFF785FF616B206BFFF73B
:10127C0071F8A16BFFF76EF8E063E06DFFF71AF9F8
:10128C00014604F13C00FFF775FFE36B2364B5E7FF
:10129C002768A66A31462846FFF75AF801463846B1
:1012AC00FEF74EFF206361682846FEF749FF606336
:1012BC00A76831463046FFF74DF801462846FFF740
:1012CC0047F8616AFFF746F801463846FEF738FFE3
:1012DC00A063206EFFF7EEF8014604F13400FFF72F
:1012EC0049FF616B206BFFF735F8A16BFFF732F804
:1012FC006064E16CFFF72EF8A064E06DFFF7DAF89C
:10130C00014604F14800FFF735FFA36CE36475E771
:10131C00E06B83E7002081E700207FE710B584B005
:10132C00094C4466094C8466DDF820C0CDF808C031
:10133C00DDF81CC0CDF804C0DDF818C0CDF800C035
:10134C00FFF70AFF04B010BD651100087911000801
:10135C0008B5054B1860054B186800230222194686
:10136C00806802F0D7F908BDEC090020300000209D
:10137C00022801D80020704708B502F04FF9092364
:10138C0003604FF0FF3008BD10B5013801280AD8B2
:10139C0014464FF0FF3392B20748006802F05FF832
:1013AC0040B9204610BD02F039F9092303604FF013
:1013BC00FF30F7E70520F5E7EC09002008B502F04F
:1013CC002DF9092303604FF0FF3008BD08B548B96B
:1013DC004FF0FF3301220848006802F0ACF840B926
:1013EC00012008BD02F01AF9092303604FF0FF3009
:1013FC00F7E70520F5E700BFEC09002008B5022847
:10140C0004D84FF400534B60002008BD02F006F9DD
:10141C0009230360F8E7000082B00E4B9A6942F092
:10142C0001029A619A6902F001020092009ADA694B
:10143C0042F08052DA61DB6903F080530193019B27
:10144C00054A536823F0E06343F00073536002B025
:10145C00704700BF0010024000000140FEE7FEE7AD
:10146C00FEE7FEE7FEE770477047704708B500F0EF
:10147C0055F908BD08B5022000F0CAFE08BD08B534
:10148C00042000F0C5FE08BD08B5024800F00DFCB4
:10149C0008BD00BF9408002008B5024801F05AFDB1
:1014AC0008BD00BFF409002008B54FF4806000F0BF
:1014BC00AFFE4FF4006000F0ABFE08BD10B5034664
:1014CC000C4A0D490D48006840B10C4800680344B3
:1014DC00521A934206D8094A136010BD0748084CAB
:1014EC000460F2E702F09AF80C2303604FF0FF302F
:1014FC00F3E700BF0050002000040000F0090020BA
:10150C00D00A00207047000000B587B0002302937A
:10151C00039304930593009301931548154A0260B5
:10152C003F224260836040F2E732C2600361436154
:10153C00836101F007FE90B94FF48053029302A926
:10154C000B4801F037FE68B90023009301936946FC
:10155C00074801F09DFE40B907B05DF804FBFFF7AA
:10156C008BFAE9E7FFF788FAEEE7FFF785FAF3E77E
:10157C00F4090020002C014002680E4B9A4200D066
:10158C00704700B583B003F564439A6942F4006276
:10159C009A619B6903F400630193019B002211463D
:1015AC00192000F0B9FC192000F0EEFC03B05DF836
:1015BC0004FB00BF002C014008B50A480A4B03602D
:1015CC004FF4E133436000238360C36003610C225A
:1015DC0042618361C36101F013FF00B908BDFFF7DD
:1015EC004BFAFBE73C0A00200044004010B586B0E3
:1015FC00002302930393049305930268164B9A42BB
:10160C0001D006B010BD03F5E633DA6942F40032BE
:10161C00DA61DA6902F400320092009A9A6942F0B7
:10162C0004029A619B6903F004030193019B042358
:10163C0002930223039303230593084C02A920462B
:10164C0000F0C4FC0823029300230393049302A923
:10165C00204600F0BBFCD4E70044004000080140E9
:10166C000C480D490D4A002302E0D458C4500433F1
:10167C00C4188C42F9D30A4A0A4C002301E01360C7
:10168C000432A242FBD3FFF73DFF01F0CDFFFFF781
:10169C0025FA70470000002074080020FC4F000859
:1016AC0078080020CC0A0020FEE7000010B50446A4
:1016BC000E4B18784FF47A73B3FBF0F30C4A1068A6
:1016CC00B0FBF3F000F06EFC68B90F2C01D90120CF
:1016DC000AE0002221464FF0FF3000F01DFC054BC4
:1016EC001C60002000E0012010BD00BF280000207D
:1016FC00240000202C00002008B5074A136843F092
:10170C0010031360032000F0F5FB0F20FFF7CEFF52
:10171C00FFF782FE002008BD00200240034A11683A
:10172C00034B1B780B441360704700BF800A0020EA
:10173C0028000020014B1868704700BF800A002069
:10174C0038B50446FFF7F6FF0546B4F1FF3F02D06B
:10175C00044B1B781C44FFF7EDFF401BA042FAD34F
:10176C0038BD00BF28000020002800F0A18038B54B
:10177C00044690F82030D3B12268136843F001037B
:10178C001360FFF7D7FF054623685A6812F0010F64
:10179C0010D1FFF7CFFF401B0A28F5D9636A43F439
:1017AC0000336362052384F82030012038BDFEF736
:1017BC0093FFE1E71A6822F002021A60FFF7BAFF02
:1017CC00054623685A6812F0020F0DD0FFF7B2FFDE
:1017DC00401B0A28F5D9636A43F40033636205237E
:1017EC0084F820300120E1E7227E012A3DD01A68DE
:1017FC0022F080021A60637E012B3BD022681368B2
:10180C0023F040031360A37E012B39D022681368A8
:10181C0023F020031360E37E012B37D0226813687A
:10182C0043F010031360237F012B35D0226813681B
:10183C0023F008031360637F012B33D022681368F5
:10184C0023F004031360A368E26813432269134373
:10185C00626913436268013A21681343CB6100202B
:10186C006062012384F82030A0E71A6842F08002FD
:10187C001A60C0E72268136843F040031360C2E7A4
:10188C002268136843F020031360C4E722681368CE
:10189C0023F010031360C6E72268136843F00803B3
:1018AC001360C8E72268136843F004031360CAE7A7
:1018BC0001207047026890F82030013BDBB2012B0D
:1018CC0005D9436A43F4802343620120704710B565
:1018DC00D2F8003243F00103C2F800324B6903F036
:1018EC001F03012000FA03F3D2F81C026FEA030C69
:1018FC0020EA0300C2F81C02C869C0B9D2F80C0275
:10190C000CEA0000C2F80C028C884869D1F80CE093
:10191C0044EA0E44483042F830400C884869D1F80B
:10192C0008E044EA0E44483002EBC0004460C86949
:10193C0001281AD0886988BBD2F804020CEA00008E
:10194C00C2F80402086978BBD2F814020CEA000051
:10195C00C2F81402096A01292CD0D2F8003223F003
:10196C000103C2F80032002010BDD2F80C0218435B
:10197C00C2F80C028C884869D1F800E044EA0E44A5
:10198C00483042F830408C894869D1F808E044EA84
:10199C000E44483002EBC0004460CBE7D2F804029E
:1019AC001843C2F80402CDE7D2F814021843C2F867
:1019BC001402CFE7D2F81C120B43C2F81C32CCE74E
:1019CC0070B5044690F82050EDB2012D06D0436A54
:1019DC0043F4002343620125284670BD022380F89E
:1019EC0020300268136823F001031360FFF7A2FE96
:1019FC00064623685B6813F0010F0CD0FFF79AFEC4
:101A0C00831B0A2BF5D9636A43F400336362052305
:101A1C0084F82030E0E700256562DDE730B590F80A
:101A2C0020C00468A4680CF1FF3C5FFA8CFCBCF18C
:101A3C00010F6BD814F0E05F62D0C4F3016CBCF101
:101A4C00020F05D9436A43F400034362012062E0AC
:101A5C00012404FA0CF41C608B68002B3DD10D683A
:101A6C00CB68046843EA45550CF118031B01E5509B
:101A7C0003680C690CF1180E03EB0E135C600B7D04
:101A8C00012B35D0D17993791B0443EA0163517949
:101A9C0043EA012314790168234301EB0C11C1F8CB
:101AAC008C31D17893781B0443EA0163517843EA73
:101ABC000123117802680B4302EB0C12C2F8883137
:101ACC0002680CF1180C4FEA0C1C52F80C3043F065
:101ADC00010342F80C3000201DE04C6843EAC403BB
:101AEC00CC6823430CF11804240105682B51BFE783
:101AFC00036803EB0E13596841F480715960C1E718
:101B0C00436A43F400134362012004E0436A43F444
:101B1C0080234362012030BD90F820C00CF1FF3CC3
:101B2C005FFA8CFCBCF1010F00F29B8010B451B930
:101B3C000468E46814F0030F10D1436A43F40013F3
:101B4C00436201207BE00468246914F0030F05D183
:101B5C00436A43F400134362012070E001F11B045B
:101B6C002401D0F800C05CF8044004F00404946034
:101B7C00002C66D101F11B042401D0F800C05CF8E4
:101B8C000440640D1460046801F11B0C4FEA0C1C3A
:101B9C0054F80C4004F00204D46004686444646893
:101BAC0004F00F041461046864446468C4F30724EB
:101BBC009461046864446468240C5461026802EB08
:101BCC000112D2F8B8211A70026802EB0112D2F895
:101BDC00B821C2F307225A70026802EB0112D2F844
:101BEC00B821C2F307429A70026802EB0112D2F8D4
:101BFC00B821120EDA70026802EB0112D2F8BC2185
:101C0C001A71026802EB0112D2F8BC21C2F307224E
:101C1C005A71026802EB0112D2F8BC21C2F30742DE
:101C2C009A71026802EB0112D2F8BC21120EDA7121
:101C3C0089B90268D36843F02003D360002010BC3C
:101C4C00704701F11B042401D0F800C05CF804407B
:101C5C00E408546097E70268136943F020031361AA
:101C6C00ECE7436A43F4802343620120704790F809
:101C7C002030013BDBB2012B05D9436A43F48023AE
:101C8C004362012070470268536919435161002077
:101C9C007047704770477047704770477047704780
:101CAC00704770477047704770472DE9F84F0546ED
:101CBC0003685C69D3F804809F68D3F80CB0D3F840
:101CCC0010A0D3F8189014F001063BD017F00106C1
:101CDC0016D001229A6017F0020F08D117F0040FEA
:101CEC000CD117F0080606D04FF4805608E0FFF729
:101CFC00D0FF002604E0FFF7CFFF01E04FF40066B1
:101D0C0017F4807F0DD02B684FF480729A6017F413
:101D1C00007F40F0868017F4806F00F0868046F4D8
:101D2C00005617F4803F0DD02B684FF480329A6028
:101D3C0017F4003F40F0838017F4802F00F083806D
:101D4C0046F4004614F0080F07D01BF0100F04D017
:101D5C0046F400762B681022DA6014F0040F02D0DF
:101D6C001BF0080F79D114F0020F04D02B68DB683C
:101D7C0013F0030F78D114F0400F07D01AF0100FA6
:101D8C0004D046F480662B6810221A6114F0200FE0
:101D9C0002D01AF0080F6BD114F0100F04D02B687E
:101DAC001B6913F0030F6AD114F4003F02D018F032
:101DBC00100F68D114F4803F02D018F0080F69D1CD
:101DCC0014F4004F7AD018F0040F74D014F4807F00
:101DDC0004D019F0010F01D046F0010614F4007F75
:101DEC0004D019F0020F01D046F0020614F4806FF3
:101DFC0004D019F0040F01D046F0040614F4006F5F
:101E0C0059D019F0700956D0B9F1400F65D058D897
:101E1C00B9F1200F5ED0B9F1300F42D146F0200657
:101E2C0044E02846FFF736FF7BE717F4006F02D03B
:101E3C0046F4804675E72846FFF72FFF71E72846E2
:101E4C00FFF729FF7EE717F4002F02D046F4803607
:101E5C0078E72846FFF722FF74E72B680822DA6040
:101E6C002846FFF71CFF7EE72846FEF7A5FD82E714
:101E7C002B6808221A612846FFF713FF8CE72846C7
:101E8C00FFF70EFF90E72B6810225A602846FFF7E9
:101E9C0009FF8FE72B6808225A602846FFF703FFDB
:101EAC008EE7B9F1100F01D146F008062A68936944
:101EBC0023F0700393612B6804225A609EB9BDE82D
:101ECC00F88FB9F1500F0BD0B9F1600FEED146F489
:101EDC008076EBE746F01006E8E746F04006E5E7CB
:101EEC0046F08006E2E76B6A1E436E622846FFF7F7
:101EFC00DBFEE4E7074AD36823F4E0631B041B0C06
:101F0C00000200F4E060034343F0BF6343F400338A
:101F1C00D360704700ED00E000B5194BDB68C3F3EC
:101F2C000223C3F1070CBCF1040F28BF4FF0040CC3
:101F3C0003F1040EBEF1060F18D9033B4FF0FF3E20
:101F4C000EFA0CFC21EA0C0199400EFA03F322EA7A
:101F5C000303194300280BDB0901C9B200F16040EF
:101F6C0000F5614080F800135DF804FB0023E5E701
:101F7C0000F00F000901C9B2024B1954F4E700BF7D
:101F8C0000ED00E014ED00E0002807DB00F01F027C
:101F9C00400901239340024A42F82030704700BFA9
:101FAC0000E100E00138B0F1807F0BD24FF0E0236C
:101FBC005861054AF02182F823100020986107220D
:101FCC001A6170470120704700ED00E070B582B0D7
:101FDC000024A446A6E0804DAA4210D007D97F4D1C
:101FEC00AA420CD005F58035AA4208D013E0A5F51D
:101FFC008015AA4203D005F57025AA4207D18A683C
:10200C00002A58D0012A51D04361082403E0A5F5D9
:10201C008015AA42F3D0BEF1FF0F4ED80646BEF192
:10202C00FF0F4CD84FEA8C0233680F25954023EAFA
:10203C00050304FA02F2134333604B6813F0805F1C
:10204C006ED0674B9A6942F001029A619B6903F06A
:10205C0001030193019B4FEA9C02951C614B53F8C1
:10206C0025600CF003039D000F23AB4026EA03060A
:10207C005D4B984229D003F58063984200F08E8026
:10208C0003F58063984200F08B8003F580639842DF
:10209C0019D004231AE0CC68BDE7CC680434BAE745
:1020AC00CC680834B7E7CC680C34B4E70361082477
:1020BC00B1E70024AFE70424ADE7061DAFE7ACF1B0
:1020CC0008029200B0E7032300E00023AB40334347
:1020DC000232444D45F822304B6813F4803F61D0F6
:1020EC00424A136843EA0E0313604B6813F4003F33
:1020FC005ED03E4A536843EA0E0353604B6813F4B8
:10210C00801F5BD0394A936843EA0E0393604B6897
:10211C0013F4001F58D0354AD36843EA0E03D3603A
:10212C000CF1010C0A6832FA0CF353D0012303FAB8
:10213C000CF302EA030E33EA0202F1D14A68122AC6
:10214C003FF649AF122A3FF666AF01A555F822F0CB
:10215C000B200008A3200008AD200008BF200008B9
:10216C002320000823200008232000082320000837
:10217C002320000823200008232000082320000827
:10218C002320000823200008232000082320000817
:10219C0023200008A7200008B3200008012395E79E
:1021AC00022393E7114A136823EA0E0313609CE79A
:1021BC000E4A536823EA0E0353609FE70B4A936859
:1021CC0023EA0E039360A2E7084AD36823EA0E03BE
:1021DC00D360A5E702B070BD0000221000003110E2
:1021EC0000100240000001400008014000040140C2
:1021FC000AB101617047090401617047C36801EAC3
:10220C00030221EA030141EA024101617047000027
:10221C0008B5054B5B69034200D108BD024B586100
:10222C00FEF744FBF9E700BF0004014003685A695C
:10223C0012F4806F01D1002070476FF480625A61F4
:10224C0000230363202280F83D2080F83E30026C8E
:10225C0042F00402026480F83C30012070472DE902
:10226C00F04107460D4690461E4624E0FFF762FA01
:10227C00069BC01AB04200D8EEB900233B63202263
:10228C0087F83D2087F83E303A6C42F020023A64E1
:10229C0087F83C3001201EE03B689C6925EA040C61
:1022AC001FFA8CFCBCFA8CFC4FEA5C1CE04511D18B
:1022BC00B6F1FF3FDAD1C5F30743012BECD13B68F4
:1022CC005B6925EA030C1FFA8CFCBCFA8CFC4FEA08
:1022DC005C1CEBE70020BDE8F0812DE9F0410546E0
:1022EC000E46174698463DE01A6842F400721A6092
:1022FC002B686FF480625A6100232B63202285F8CF
:10230C003D2085F83E302A6C42F004022A6485F8A0
:10231C003C30012034E0FFF70DFAA0EB0800B84286
:10232C0000D8FFB900232B63202285F83D2085F8C7
:10233C003E302A6C42F020022A6485F83C300120A1
:10234C001EE02B689C6926EA0404A4B2003C18BF6A
:10235C000124A4B12B685A6912F4806FC4D1B7F16F
:10236C00FF3FD8D1C6F30743012BEAD12B685C6938
:10237C0026EA0404A4B2003C18BF0124E9E70020BB
:10238C00BDE8F08170B504460D46164623685B69BE
:10239C0013F0800F1CD12046FFF748FFD0B9B5F1E0
:1023AC00FF3FF3D0FFF7C6F9801BA84201D8002DE0
:1023BC00ECD100232363202284F83D2084F83E30A6
:1023CC00226C42F02002226484F83C30012000E0B0
:1023DC00002070BD0120FCE72DE9F04385B00446D8
:1023EC000D4691461F46DDF830800D9E0368196836
:1023FC0041F4807119600096434600224FF00111A0
:10240C00FFF72DFF60B9236805F0FE051D6133460B
:10241C00424626492046FFF760FF68B1012008E0DC
:10242C0023681B6813F4807F02D04FF4007323647D
:10243C00032005B0BDE8F0830023039323685A6999
:10244C0003929B690393039B324641462046FFF758
:10245C0099FF30B9012F0FD123685FFA89F61E61FD
:10246C00E7E7236C042B01D00120E2E72268136814
:10247C0043F400731360F7E723684FEA19221A61DB
:10248C00324641462046FFF77DFF20B923685FFAAC
:10249C0089F61E61CDE7236C042B01D00120C8E71F
:1024AC002268136843F400731360F7E7020001001D
:1024BC0070B504460D46164623685B6913F0040F8D
:1024CC001CD12046FFF7B2FED0B9B5F1FF3FF3D0D7
:1024DC00FFF730F9801BA84201D8002DECD1002366
:1024EC002363202284F83D2084F83E30226C42F095
:1024FC002002226484F83C30012000E0002070BDF2
:10250C000120FCE7002800F0CC8070B5044690F860
:10251C003D30002B77D0242384F83D30226813689B
:10252C0023F0010313602268136843F40043136023
:10253C002268136823F40043136000F085FC626882
:10254C005A4B9A4264D85A4B98428CBF00230123B1
:10255C00002B40F0A8805749A1FB00318B0C25685B
:10256C006A6822F03F0242EA91426A6021680A6A74
:10257C0022F03F0266684D4DAE424FD801331343F3
:10258C000B622168CA6922F44F4222F0FF0266688E
:10259C00464B9E424CD8431E7600B3FBF6F30133F8
:1025AC0040F6FC70034278D0C3F30B031343CB61AA
:1025BC0021680B6823F0C003E269206A02431343CD
:1025CC000B6021688B6823F4034323F0FF0322691B
:1025DC00E068024313438B602168CB6823F0FF0350
:1025EC006269A06902431343CB602268136843F00D
:1025FC000103136000202064202384F83D30206305
:10260C0084F83E0070BD80F83C30FEF71DF982E77F
:10261C00294B98428CBF0023012399E74FF4967500
:10262C0005FB03F3254DA5FB03539B090133A6E7DB
:10263C00A368BBB9451E06EB460CB5FBFCF5013592
:10264C00C5F30B05B5FA85F56D0945BBC3B9013862
:10265C0006EB4603B0FBF3F30133C3F30B0343F474
:10266C000043A3E7451E06EB860C0CEB8C0CB5FB6C
:10267C00FCF50135C5F30B05B5FA85F56D09E4E7F5
:10268C00013806EB860303EB8303B0FBF3F3013352
:10269C00C3F30B0343F4404388E7042386E7012389
:1026AC0084E7012070470120ACE700BFA086010041
:1026BC007F841E0083DE1B43FF083D00D34D621058
:1026CC002DE9F04383B004460F46904699460C9E84
:1026DC00FFF730F8054694F83D00C0B2202803D02F
:1026EC00022003B0BDE8F0830095192301224B4969
:1026FC002046FFF7B4FD002840F0898094F83C3068
:10270C00012B00F08680012384F83C3023681A6882
:10271C0012F0010F03D11A6842F001021A6022680C
:10272C00136823F400631360212384F83D304023A5
:10273C0084F83E30002323640A9B6362BDF82C307E
:10274C006385638D2385364BE362019500964B467A
:10275C00424639462046FFF73FFE00285BD1238DC9
:10276C00002B35D02A4631462046FFF70BFE20BB06
:10277C00626A236812781A61626A531C6362218D43
:10278C00013989B22185638D9BB2013B9BB2638574
:10279C002368586910F0040FE1D00029DFD052787B
:1027AC001A61636A01336362238D013B2385638D58
:1027BC009BB2013B9BB26385D1E7236C042B01D008
:1027CC0001208EE72268136843F400731360F7E767
:1027DC002A4631462046FFF76BFE50B1236C042B82
:1027EC0001D001207DE72268136843F40073136065
:1027FC00F7E72268136843F400731360202384F80E
:10280C003D30002384F83E3084F83C3069E70220E8
:10281C0067E7022065E7012063E700BF02001000B4
:10282C000000FFFF82B0084B1B68084AA2FB032381
:10283C005B0A00FB03F3019300BF019B5A1E01923C
:10284C00002BF9D102B0704724000020D34D621048
:10285C00002800F0F18170B582B00446036813F0D3
:10286C00010F2CD0994B5B6803F00C03042B1DD08B
:10287C00964B5B6803F00C03082B12D06368B3F51E
:10288C00803F41D0002B55D103F1804303F5043335
:10289C001A6822F480321A601A6822F480221A60B4
:1028AC0037E08A4B5B6813F4803FE7D0874B1B689B
:1028BC0013F4003F03D06368002B00F0BF81236842
:1028CC0013F0020F75D0814B5B6813F00C0F5FD0C7
:1028DC007E4B5B6803F00C03082B54D02369002B50
:1028EC0000F08A807A4B01221A60FEF723FF05461E
:1028FC00764B1B6813F0020F75D1FEF71BFF401BC4
:10290C000228F5D903209EE1704A136843F4803302
:10291C001360636843B3FEF70DFF05466B4B1B68F2
:10292C0013F4003FCBD1FEF705FF401B6428F5D90B
:10293C00032088E1B3F5A02F09D0644B1A6822F468
:10294C0080321A601A6822F480221A60E1E703F1DF
:10295C008043A3F53C331A6842F480221A601A684B
:10296C0042F480321A60D4E7FEF7E4FE0546574B7A
:10297C001B6813F4003FA2D0FEF7DCFE401B64285A
:10298C00F5D903205FE1514B5B6813F4803FA5D16F
:10299C004E4B1B6813F0020F03D02369012B40F040
:1029AC004F814A4A136823F0F803616943EAC10373
:1029BC001360236813F0080F33D0A369002B5CD08D
:1029CC00434B0122C3F88024FEF7B4FE05463F4B6F
:1029DC005B6A13F0020F21D1FEF7ACFE401B0228FC
:1029EC00F5D903202FE1394A136823F0F803616904
:1029FC0043EAC1031360DCE7354B00221A60FEF793
:102A0C0099FE0546314B1B6813F0020FD1D0FEF72F
:102A1C0091FE401B0228F5D9032014E10120FFF799
:102A2C0001FF236813F0040F00F09680274BDB693D
:102A3C0013F0805F34D1254BDA6942F08052DA61B1
:102A4C00DB6903F080530193019B0125214B1B682B
:102A5C0013F4807F26D0E368012B3DD0002B53D19B
:102A6C0003F1804303F504331A6A22F001021A625F
:102A7C001A6A22F004021A6233E0154B0022C3F8E2
:102A8C008024FEF757FE0546104B5B6A13F0020FCD
:102A9C00C7D0FEF74FFE401B0228F5D90320D2E029
:102AAC000025D3E70B4A136843F480731360FEF7D9
:102ABC0041FE0646074B1B6813F4807FCBD1FEF713
:102ACC0039FE801B6428F5D90320BCE000100240BD
:102ADC0000004242007000405F4A136A43F0010359
:102AEC001362E36833B3FEF725FE06465A4B1B6AA6
:102AFC0013F0020F2FD1FEF71DFE801B41F288331D
:102B0C009842F3D903209EE0052B09D0524B1A6A48
:102B1C0022F001021A621A6A22F004021A62E0E739
:102B2C004D4B1A6A42F004021A621A6A42F0010210
:102B3C001A62D6E7FEF7FEFD0646474B1B6A13F0FA
:102B4C00020F08D0FEF7F6FD801B41F28833984245
:102B5C00F3D9032077E0E5B9E369002B72D03E4A44
:102B6C00526802F00C02082A56D0022B17D03B4BAD
:102B7C0000221A66FEF7DEFD0446374B1B6813F085
:102B8C00007F47D0FEF7D6FD001B0228F5D90320A5
:102B9C0059E0314AD36923F08053D361DCE72F4BE2
:102BAC0000221A66FEF7C6FD05462B4B1B6813F078
:102BBC00007F06D0FEF7BEFD401B0228F5D903208E
:102BCC0041E0236AB3F5803F1AD023494B6823F4C4
:102BDC007413226A606A024313434B601F4B012239
:102BEC001A66FEF7A7FD04461B4B1B6813F0007F0B
:102BFC000ED1FEF79FFD001B0228F5D9032022E021
:102C0C00154A536823F40033A1680B435360DCE787
:102C1C00002018E0002016E0012B16D00E4B5B684C
:102C2C0003F48031226A914211D103F47013626A69
:102C3C0093420ED1002006E001207047012002E0F3
:102C4C00012000E0002002B070BD0120FBE7012054
:102C5C00F9E70120F7E700BF0010024000004242F4
:102C6C0086B0174B0FCB0DF1180C0CE90F0040F28E
:102C7C000123ADF80430134B5B6803F00C02082AF7
:102C8C0002D0114806B07047C3F3834218326A442D
:102C9C0012F8100C13F4803F0DD00A4B5B68C3F391
:102CAC00404318336B4413F8143C074A02FB00F002
:102CBC00B0FBF3F0E6E7054B03FB00F0E2E700BFE7
:102CCC00D84F00080010024000127A0000093D00A5
:102CDC00002800F0A08070B50D460446524B1B68CE
:102CEC0003F007038B420BD24F4A136823F0070300
:102CFC000B431360136803F007038B4240F08D8085
:102D0C00236813F0020F17D013F0040F04D0474AB6
:102D1C00536843F4E0635360236813F0080F04D046
:102D2C00424A536843F460535360404A536823F05B
:102D3C00F003A1680B435360236813F0010F31D0EB
:102D4C006368012B20D0022B25D0384A126812F070
:102D5C00020F64D035494A6822F0030213434B60DA
:102D6C00FEF7E8FC0646314B5B6803F00C03626827
:102D7C00B3EB820F16D0FEF7DDFC801B41F28833DB
:102D8C009842F0D9032045E0284A126812F4003F1B
:102D9C00E0D101203EE0254A126812F0007FD9D123
:102DAC00012037E0204B1B6803F00703AB420AD924
:102DBC001D4A136823F007032B431360136803F0B9
:102DCC000703AB422DD1236813F0040F06D0174A2A
:102DDC00536823F4E063E1680B435360236813F0FA
:102DEC00080F07D0114A536823F46053216943EA52
:102DFC00C1035360FFF734FF0C4B5B68C3F3031341
:102E0C000B4AD35CD8400B4B18600B4B1868FEF781
:102E1C004DFC002070BD012070470120FAE7012015
:102E2C00F8E70120F6E700BF002002400010024046
:102E3C00C04F0008240000202C000020014B186813
:102E4C00704700BF2400002008B5FFF7F7FF044BC4
:102E5C005B68C3F30223034AD35CD84008BD00BFB0
:102E6C0000100240D04F000808B5FFF7E7FF044BF5
:102E7C005B68C3F3C223034AD35CD84008BD00BFD0
:102E8C0000100240D04F000810B4036A046A24F00A
:102E9C0001040462846924F0F00C4CEA021223F061
:102EAC000A030B438261036210BC704710B4046ABE
:102EBC0024F0100404628469036A24F4704C4CEA14
:102ECC00023223F0A00343EA01138261036210BCB7
:102EDC007047836823F070030B4343F00703836050
:102EEC007047000090F83D30DBB2012B27D1022354
:102EFC0080F83D300268D36843F00103D360036867
:102F0C00114A934210D0B3F1804F0DD0A2F59432F8
:102F1C00934209D002F58062934205D01A6842F0C0
:102F2C0001021A60002070479A6802F00702062A14
:102F3C0007D01A6842F001021A6000207047012085
:102F4C0070470020704700BF002C0140704770474D
:102F5C007047704710B5044603681A6912F0020FE7
:102F6C0011D0DA6812F0020F0DD06FF002021A6164
:102F7C000123037703689B6913F0030F70D0FFF7ED
:102F8C00E6FF0023237723681A6912F0040F12D08E
:102F9C00DA6812F0040F0ED06FF004021A610223EB
:102FAC00237723689B6913F4407F5FD02046FFF79B
:102FBC00CEFF0023237723681A6912F0080F12D072
:102FCC00DA6812F0080F0ED06FF008021A610423B1
:102FDC0023772368DB6913F0030F4ED02046FFF7ED
:102FEC00B6FF0023237723681A6912F0100F12D052
:102FFC00DA6812F0100F0ED06FF010021A6108236D
:10300C0023772368DB6913F4407F3DD02046FFF71C
:10301C009EFF0023237723681A6912F0010F03D057
:10302C00DA6812F0010F36D123681A6912F0800F9A
:10303C0003D0DA6812F0800F34D123681A6912F0C9
:10304C00400F03D0DA6812F0400F32D123681A69AE
:10305C0012F0200F03D0DA6812F0200F30D110BD1F
:10306C00FFF774FF2046FFF773FF8AE72046FFF750
:10307C006DFF2046FFF76CFF9BE72046FFF766FFCE
:10308C002046FFF765FFACE72046FFF75FFF2046C1
:10309C00FFF75EFFBDE76FF001021A612046FDF7F6
:1030AC009FFCC1E76FF080021A61204600F027F9FF
:1030BC00C3E76FF040021A612046FFF74AFFC5E7ED
:1030CC006FF020021A61204600F018F9C7E70000E3
:1030DC0003681B4A90420AD0B0F1804F07D0A2F58A
:1030EC009432904203D002F58062904203D123F0D7
:1030FC0070034A681343124A90420AD0B0F1804FD1
:10310C0007D0A2F59432904203D002F5806290422F
:10311C0003D123F44073CA68134323F080034A6934
:10312C00134303608B68C3620B688362044B984241
:10313C0002D00123436170470B690363F9E700BFB9
:10314C00002C014040B310B5044690F83D30F3B16B
:10315C00022384F83D30214651F8040BFFF7B8FFE9
:10316C00012384F8463084F83E3084F83F3084F8EC
:10317C00403084F8413084F8423084F8433084F88D
:10318C00443084F8453084F83D30002010BD80F880
:10319C003C30FEF7F1F9DBE70120704710B484688E
:1031AC0024F47F4C42EA03220A4342EA0C02826076
:1031BC0010BC704790F83C30012B66D010B504461B
:1031CC00012380F83C30022380F83D30026893687C
:1031DC0023F47F4323F0770393600B68602B40D07C
:1031EC0022D8402B47D00BD9502B0ED1CA68496836
:1031FC000068FFF749FE50212068FFF76AFE04E0E3
:10320C00202B0CD008D9302B09D0012384F83D3069
:10321C00002084F83C0010BD0BB1102BF5D11946E1
:10322C002068FFF756FEF0E7702B0ED0B3F5005F69
:10323C00EBD1CB684A6889680068FFF7AFFF22685A
:10324C00936843F480439360DFE7CB684A688968EE
:10325C000068FFF7A3FF2268936843F0770393603D
:10326C00D3E7CA6849680068FFF720FE6021206830
:10327C00FFF72FFEC9E7CA6849680068FFF704FE2C
:10328C0040212068FFF725FEBFE7022070470000B1
:10329C0090F83C30012B2CD010B4012380F83C303A
:1032AC00022380F83D3003685A689C6822F0700C49
:1032BC000A6842EA0C025A6003680F4A93420AD029
:1032CC00B3F1804F07D0A2F59432934203D002F5AC
:1032DC008062934204D124F080044A6814439C60B9
:1032EC00012380F83D30002380F83C30184610BC98
:1032FC0070470220704700BF002C01407047704798
:10330C0010B504460268136923F44053C1680B439B
:10331C00136183680269134342691A430168CB68DD
:10332C0023F4B05323F00C031343CB6002685369AE
:10333C0023F4407381690B4353610268134B9A4227
:10334C0020D0FFF781FD024602EB820202EB8202E3
:10335C0063689B00B2FBF3F20D48A0FB02314909F4
:10336C00642303FB11231B013233A0FB03235B09F2
:10337C0003F0F00202EB011203F00F032168134477
:10338C008B6010BDFFF770FD0246DDE70038014091
:10339C001F85EB512DE9F84305460F461646994615
:1033AC00DDF820802C68246837EA04030CBF4FF04A
:1033BC00010C4FF0000CB4451FD1B8F1FF3FF1D018
:1033CC00B8F1000F05D0FEF7B5F9A0EB09004045A8
:1033DC00E8D92A68D36823F4D073D3602A68536978
:1033EC0023F001035361202385F83D3085F83E30EE
:1033FC00002385F83C30032000E00020BDE8F88372
:10340C0058B310B5044690F83D300BB3242384F820
:10341C003D302268D36823F40053D3602046FFF775
:10342C006FFF2268136923F4904313612268536978
:10343C0023F02A0353612268D36843F40053D3600A
:10344C0000202064202384F83D3084F83E3010BDE9
:10345C0080F83C30FEF7CAF8D8E7012070472DE918
:10346C00F04182B01E4690F83D30DBB2202B54D197
:10347C0004460D469046002953D0002A53D090F8AC
:10348C003C30012B51D0012380F83C3000230364E5
:10349C00212380F83D30FEF74DF90746A4F824802F
:1034AC00A4F82680A368B3F5805F05D04FF0000820
:1034BC00002384F83C3012E0236913B14FF000086C
:1034CC00F6E7A8460025F3E738F8023B2268C3F379
:1034DC0008035360E28C92B2013A92B2E284E38C1C
:1034EC009BB273B100963B46002280212046FFF729
:1034FC0051FFE0B9002DE7D015F8012B23685A6075
:10350C00E8E700963B46002240212046FFF742FFA9
:10351C0078B9202384F83D3000E0022002B0BDE8E9
:10352C00F0810120FAE70120F8E70220F6E70320FA
:10353C00F4E70320F2E72DE9F04182B01E4690F843
:10354C003E30DBB2202B5CD104460D469046002960
:10355C005BD0002A5BD090F83C30012B59D0012372
:10356C0080F83C3000230364222280F83E20036361
:10357C00FEF7E0F80746A4F82C80A4F82E80A36888
:10358C00B3F5805F05D04FF00008002384F83C3081
:10359C0017E0236913B14FF00008F6E7A8460025A1
:1035AC00F3E723685B68C3F3080328F8023B03E0E6
:1035BC0023685B682B700135E28D92B2013A92B2AE
:1035CC00E285E38D9BB2BBB100963B4600222021E5
:1035DC002046FFF7DFFEF0B9002DE2D0A368B3F56B
:1035EC00805FE5D013B92369002BE1D023685B68B9
:1035FC0003F07F032B70DEE7202384F83E3000209D
:10360C0000E0022002B0BDE8F0810120FAE70120C1
:10361C00F8E70220F6E70320F4E70000014B1868F6
:10362C00704700BF3000002070B50D4E0D4D761B5D
:10363C00B61006D0002455F8043B01349847A64236
:10364C00F9D1094E094D01F093F8761BB61006D04E
:10365C00002455F8043B01349847A642F9D170BDBB
:10366C00F04F0008F04F0008F84F0008F04F00082A
:10367C00830730B548D0541E002A3FD00346CAB247
:10368C0001E0013C3AD303F8012B9D07F9D1032C3F
:10369C002DD9CDB245EA05250F2C45EA054536D97D
:1036AC00A4F1100222F00F0C03F1200EE6444FEAB5
:1036BC00121C03F1100242E9045542E90255103282
:1036CC007245F8D10CF1010214F00C0F03EB02124D
:1036DC0004F00F0C13D0ACF1040323F003030433F8
:1036EC00134442F8045B9342FBD10CF003042CB15D
:1036FC00CAB21C4403F8012B9C42FBD130BD64467A
:10370C001346002CF4D1F9E703461446BFE71A46DA
:10371C00A446E0E72DE9F043694C0E46D4F800804E
:10372C00174604461D4683B0B8F1000F03D0D8F8F5
:10373C003830002B77D0022F05D0012F00F2AC804F
:10374C00002DC0F2A980636EDA0752D5214640469F
:10375C0000F05AF9216B41B104F14003994202D0B7
:10376C00404600F07DFA002323630023B4F90CC01B
:10377C00A3611CF0800F636064D12CF44A6C2CF0B4
:10378C00030C022FA4F80CC06AD001AB21464046B2
:10379C006A4600F091FBA3891843A081002D2FD01D
:1037AC00002E2ED0D8F83830002B38D0009BC4E92E
:1037BC000465AB42B4F90C3026601CBF43F40063C3
:1037CC00A381012F04BF43F00103A3819AB213F02C
:1037DC0008032CD0D1075DD500216D42A561656E23
:1037EC00A16015F0010527D00025284603B0BDE8DF
:1037FC00F083A3899B05A9D4A06D00F059FBA5E724
:10380C00009D284600F088FB0646002847D0A38977
:10381C0043F08003A381D8F83830002BC6D1404642
:10382C0000F026F9C2E7404600F022F983E7A360D6
:10383C00656E15F00105D7D1930524D5284603B044
:10384C00BDE8F0834046216900F00AFAB4F90CC0D7
:10385C00022F2CF44A6C2CF0030CA4F80CC094D15D
:10386C0000250021012204F1430323602361636ED0
:10387C004CF0020CD807A4F80CC0A1606261DDD436
:10388C001CF4007FDAD1A06D00F014FB284603B0C5
:10389C00BDE8F083A560CBE74FF0FF35CEE7DDF850
:1038AC000090A94504D0484600F036FB064620B9E6
:1038BC004FF0FF35B4F90CC0D3E74D46A7E700BF76
:1038CC0030000020024B13B1024800F005B87047DD
:1038DC0000000000A13B0008002301461A461846D0
:1038EC0000F048BEB1F90C20F8B50C46110707469C
:1038FC0043D4636842F40062002BA2815BDDA56AAD
:10390C00002D56D000233E683B6093B212F48052D7
:10391C0055D101233846E169A847421C65D0A389DB
:10392C00A56A5B0705D56368C01A236B0BB1E36B03
:10393C00C01A0246E16900233846A847411C40D111
:10394C003B68002B3DD01D2B01D0162B54D10022EF
:10395C00A38923F40063A3812369C4E90032216B9A
:10396C003E6031B304F14003994202D0384600F076
:10397C0077F9002318462363F8BD2669CEB193B2BC
:10398C009A0718BF0023256808BF63692660AD1B22
:10399C00A3600CE02B463246D4F824C03846E169CB
:1039AC00E047B0F1000CA5EB0C05664416DD002DCC
:1039BC00F0DC0020F8BDE36B002BA0DCF9E7206DF8
:1039CC00AFE70022B4F90C30626023F40063226983
:1039DC00A381DB042260C2D52065C0E7A3894FF028
:1039EC00FF3043F04003A381F8BD3B68002B96D019
:1039FC001D2B06D0162B04D0A38943F04003A381C2
:103A0C00F8BD00203E60F8BD38B505460C4608B13F
:103A1C00836BA3B1B4F90C00B8B1636EDB0701D4AE
:103A2C00810515D528462146FFF75CFF636E0546D8
:103A3C00DA0702D4A3899B050ED5284638BD00F0C1
:103A4C0017F8B4F90C000028E7D10546284638BD14
:103A5C00A06D00F02DFAE5E7A06D00F02BFA2846DA
:103A6C0038BD00BF014900F0FBB900BF314600086A
:103A7C002DE9F0478246394800F01AFADAF8384056
:103A8C00002C66D1042303223549DAF80450CAF815
:103A9C003C10DFF8D090DFF8D080344F344E0AF56C
:103AAC003B71CAE9B921CAF8E0422146EB60082211
:103ABC00C5E90044C5E904446C66AC60AC6105F131
:103ACC005C00FFF7D5FDC5E90759C5E90987EE622A
:103ADC0005F1580000F0E8F9DAF80850254B2146BA
:103AEC00EB600822C5E90044C5E904446C66AC608F
:103AFC00AC6105F15C00FFF7BBFDC5E90759C5E9F1
:103B0C000987EE6205F1580000F0CEF9DAF80C5096
:103B1C00194B2146EB600822C5E90044C5E9044471
:103B2C006C66AC60AC6105F15C00FFF7A1FD05F1C2
:103B3C005800C5E90759C5E90A76C5F8248000F094
:103B4C00B3F901230548CAF83830BDE8F04700F056
:103B5C00B1B90248BDE8F04700F0ACB9900A0020BA
:103B6C00713A0008C9440008ED4400082D450008CE
:103B7C004D4500080900010012000200014800F048
:103B8C0097B900BF8C0A0020014800F093B900BF20
:103B9C008C0A002038B5084B084D5B1B9C1007D0D5
:103BAC00043B1D44013C55F804399847002CF9D1CD
:103BBC00BDE8384000F0E2BDFC4F0008F84F0008AB
:103BCC00F8B50C46234F064600F05AFCBB685D68FE
:103BDC00C4F57E6325F003050F332B4423F47F6378
:103BEC0023F00F03A3F58054B4F5805F07DB0021AD
:103BFC00304600F051FCBB682B44984204D0304650
:103C0C0000F044FC0020F8BD3046614200F044FC5A
:103C1C0001300DD0104ABB682D1B45F001055D60CD
:103C2C00136830461B1B136000F030FC0120F8BDFC
:103C3C000021304600F030FCBA68831A0F2BDEDD11
:103C4C0043F001035360054B03491B68C01A08601D
:103C5C00D5E700BF64040020940A00206C08002003
:103C6C0000295ED0F8B50C46064600F009FC54F865
:103C7C00042C784FA4F1080522F001016818D7F83C
:103C8C0008C04368844523F0030300F08780D20703
:103C9C00436034D454F8082C07F10804AD1A1144CD
:103CAC00AA68A24268D000EB030CDCF804E0D5F85B
:103CBC000CC01EF0010FC2F80CC0CCF8082000F0AC
:103CCC00918041F001036B600160B1F5007F31D24E
:103CDC004A09CB08012191407A680133114379607C
:103CEC0007EBC30257F83310083AC5E9021247F83C
:103CFC003350CD603046BDE8F84000F0C7BBC21869
:103D0C005268D2070ED4194407F108048368A34201
:103D1C0070D0C268DA60936041F001036B60695047
:103D2C00D3E7704741F00103B1F5007F44F8043C40
:103D3C000160CDD3B1F5206F4FEA512347D28B09E7
:103D4C0003F1390003F13802C300F818FB580838A6
:103D5C00984258D05A6822F003028A4202D99B68D2
:103D6C009842F7D1D868C5E9023085603046DD60ED
:103D7C00BDE8F84000F08ABBC2185268D20763D481
:103D8C000B44D0E90212CA60916043F001026A60F0
:103D9C003046EB50BDE8F84000F078BB0B44D1073F
:103DAC0007D454F8082CAD1A1344D5E90212CA6092
:103DBC00916043F001026A60274ABD6012689A4222
:103DCC0098D8264B30461968FFF7FAFE92E7142B69
:103DDC000AD9542B1FD80B0B03F16F0003F16E02A1
:103DEC00C300B2E7194491E703F15C0003F15B02F5
:103DFC00C300AAE741F00103C7E90455C5E9024431
:103E0C006B60695076E70121921001FA02F2796831
:103E1C000A437A60A7E7B3F5AA7F06D8CB0B03F168
:103E2C00780003F17702C3008FE740F254529342BB
:103E3C0006D88B0C03F17D0003F17C02C30084E7F0
:103E4C004FF47E737E2280E741F001036B600160CA
:103E5C0050E700BF6404002070080020C40A002052
:103E6C002DE9F8434FF000090746884600F53876EF
:103E7C00D6E90154013D10D4A389013D012B08D989
:103E8C00B4F90E30013304D021463846C04749EA14
:103E9C0000096B1C04F16804EED13668002EE7D1E2
:103EAC004846BDE8F88300BF704700BF704700BFAD
:103EBC00704700BF704700BF70B50C46B1F90E10CB
:103ECC00154600291E4696B014DB6A4600F010FC1D
:103EDC0000280FDB019A4FF4806302F47042A2F5C4
:103EEC000052B2FA82F24FF40060520932602B6039
:103EFC0016B070BD0023B4F90C10336011F08000C3
:103F0C0004D0402218462A6016B070BD4FF480636E
:103F1C002B6016B070BD00BF024B0146186800F054
:103F2C0003B800BF300000202DE9F04F01F10B0564
:103F3C00162D064683B025D8102900F2B88000F063
:103F4C009FFA102518224FF0020CB54F3A445368D3
:103F5C00A2F108018B4200F0B7805A68D96822F0B0
:103F6C0003021A449C683046E1608C60516803F18E
:103F7C00080441F00101516000F088FA204603B0BA
:103F8C00BDE8F08F35F0070500F19180A94200F2F1
:103F9C008E8000F075FAB5F5FC7FC0F094816B0A49
:103FAC0000F08C80042B00F26A81AB0903F1390C10
:103FBC0003F138044FEACC00994F38444368083871
:103FCC00984206D10CE0002980F22681DB689842E9
:103FDC0006D05A6822F00302511B0F29F3DDA446C8
:103FEC003C69DFF840E274457AD0626822F0030243
:103FFC00531B0F2B00F37681002BC7E904EE80F2E4
:10400C006781B2F5007F80F019810121D308520934
:10401C000B4491407A6857F833000A4307EBC3010D
:10402C000839A060E1607A6047F83340C460012130
:10403C004FEAAC039940914259D8114206D12CF069
:10404C00030C490011420CF1040CFAD007EBCC091B
:10405C0048466446D0F80C80404508D11CE1002B42
:10406C0080F22181D8F80C80404500F01581D8F8F9
:10407C00042022F00302531B0F2BF0DD08EB05018B
:10408C0045F00105C8F804503046D8E90264F460E4
:10409C00A66043F00104C7E904114C60C1E902EECB
:1040AC0048F8023000F0F2F908F1080402E00C23A1
:1040BC0000243360204603B0BDE8F08F4FF400704D
:1040CC004FF0400C3F2477E7D3689A4208BF0CF1BD
:1040DC00020C7FF442AF3C69DFF848E1744584D1AF
:1040EC0001217A684FEAAC0399409142A5D9BC688A
:1040FC00636823F003094D4503D8A9EB05030F2B87
:10410C007ADCDFF824B1494BDBF800201B68013264
:10411C002B4404EB090A00F02F8103F580530F3375
:10412C0023F47F6828F00F084146304600F0B4F9BC
:10413C00411C024600F0EF80824500F2EA803C4BC5
:10414C00196841440846196000F04981DBF80010F9
:10415C00019301311BBFA2EB0A0A5044CBF800209B
:10416C00186012F0070B00F01181CBF108010A4422
:10417C00CBF5805190440831A1EB0801C1F30B0A37
:10418C0051463046009200F087F9421CDDE90023CD
:10419C0000F04B81801A00EB0A08196848F0010006
:1041AC005144BC42BA601960506000F02481B9F1EE
:1041BC000F0F40F222814FF0050E6068A9F10C0C34
:1041CC002CF0070C00F0010040EA0C006060BCF120
:1041DC000F0F04EB0C00C0E901EE00F22E81144627
:1041EC005068144B1A688A4238BF1960124B1A680F
:1041FC008A4238BF196090E0621943F0010345F020
:10420C00010565603046BA600834536000F03EF931
:10421C00204603B0BDE8F08FD9681A44A2E600BF6F
:10422C00640400206C0400206C080020C40A0020E8
:10423C00940A0020BC0A0020C00A0020B2F5206FAE
:10424C004FEA52235FD3142B00F2B18003F15C01CF
:10425C00C9005B33781879580838884200F08F8091
:10426C004B6823F00303934202D989688842F7D143
:10427C00C8687A68C4E902108460CC60D7E6142B55
:10428C0059D9542B00F29B802B0B03F16F0C03F1CB
:10429C006E044FEACC008FE60134A30700F108004E
:1042AC007FF4D8AE53E0444642445368D8F80C101F
:1042BC0043F00103536054F8083F3046D9608B60DB
:1042CC0000F0E4F8F6E64FEAD50C05F108023CE6FE
:1042DC0022445368304643F00103536000F0D6F893
:1042EC000834E7E6611945F00105656043F0010506
:1042FC00C7E904113046C1E902EE4D60A35000F04D
:10430C00C5F80834D6E6930903F13901C9003833EE
:10431C00A0E7BC425ED0BC68606820F0030845454D
:10432C00A8EB050302D80F2B3FF766AF304600F021
:10433C00ADF80024BEE603F15C0C03F15B044FEA1C
:10434C00CC0039E659F808394B4540F095801CF003
:10435C00030F0CF1FF3CF5D17B6823EA01037B6072
:10436C00490099423FF6C3AE11B9C0E64900043486
:10437C001942FBD0A44669E603F11008D4E60122E9
:10438C009B109A407B681A437A6073E702EB080132
:10439C004942C1F30B0A51463046009200F07CF8BA
:1043AC00431CDDE900237FF4F5AEDA46F5E6542B29
:1043BC0026D8130B03F16F01C9006E334AE7B3F52E
:1043CC00AA7F26D8EB0B03F1780C03F177044FEAA4
:1043DC00CC00F1E5294B186840441860B6E6CAF3E6
:1043EC000B0CBCF1000F7FF4B1AEBC68C84448F0B4
:1043FC0001006060F5E61446F3E60123536095E78F
:10440C00B3F5AA7F24D8D30B03F17801C900773315
:10441C0020E740F25452934224D8AB0C03F17D0CAC
:10442C0003F17C044FEACC00C6E5ABF1080BD84491
:10443C004FF0000AA8EB0208AFE604F10801304681
:10444C000093FFF70DFCBC68009B60681968C8E618
:10445C0040F254518B420BD8930C03F17D01C900EF
:10446C007C33F7E64FF47E704FF07F0C7E24A3E58F
:10447C004FF47E717E23EDE67B6871E7940A002091
:10448C000148FFF715BD00BF880A00200148FFF75F
:10449C0011BD00BF880A0020002238B5064D044625
:1044AC0008462A60FDF70AF8431C00D038BD2B687B
:1044BC00002BFBD0236038BDC80A002010B50C4679
:1044CC00B1F90E1000F03EF9002803DB236D034414
:1044DC00236510BDA38923F48053A38110BD00BFB5
:1044EC002DE9F0410C46B1F90C101F46CB050546E1
:1044FC0016460BD421F48051A1813B463246284606
:10450C00B4F90E10BDE8F04100F01EB8B4F90E106D
:10451C000223002200F000F9B4F90C10EAE700BF06
:10452C0010B50C46B1F90E1000F0F6F8A389421C38
:10453C000EBF23F4805343F480532065A38110BD38
:10454C00B1F90E1000F05CB838B50C4611460022DB
:10455C008446074D20462A601A466446FCF714FF31
:10456C00431C00D038BD2B68002BFBD0236038BD1A
:10457C00C80A00202DE9F047DFF87CA00646DAF8DF
:10458C00000098460F469146FFF792FC1B4B1B68A8
:10459C00D3F8484124B365681F2D26DC5EB96B1C2B
:1045AC000235DAF80000636044F82570FFF782FCEE
:1045BC000020BDE8F087012304EB8501C1F8889049
:1045CC00D4F88821AB401A43022EC4F88821C1F8D4
:1045DC000881E4D1D4F88C211343C4F88C31DEE784
:1045EC0003F5A674C3F84841D5E7DAF80000FFF7E5
:1045FC0061FC4FF0FF30DCE760040020EC4F00085A
:10460C00002238B5064D044608462A60FCF7B0FE79
:10461C00431C00D038BD2B68002BFBD0236038BD69
:10462C00C80A002070B500294BD006460C4610B1C4
:10463C00836B002B48D0636ED80734D5B4F90C309B
:10464C00002B3ED021463046FFF74CF9E36A054675
:10465C0033B13046E16998470028B8BF4FF0FF35B9
:10466C00A3891A063BD4216B41B104F14003994252
:10467C0002D03046FFF7F4FA00232363616C21B1BA
:10468C003046FFF7EDFA00236364FFF777FA002258
:10469C00636EA281DB0727D5A06DFFF707FCFFF740
:1046AC0073FA284670BDA3899905CBD4A06DFFF78A
:1046BC00FFFBB4F90C30002BC4D1656E15F001056D
:1046CC0008D00025284670BDFFF7D2F9636ED807D5
:1046DC00B4D4E8E7A06DFFF7EDFB284670BD30467B
:1046EC002169FFF7BDFABEE7A06DFFF7E3FBD3E747
:1046FC0070B50026074D0446084611462E60FCF79F
:10470C007DFE431C00D070BD2B68002BFBD02360BA
:10471C0070BD00BFC80A002038B50C4611460022F7
:10472C008446074D20462A601A466446FCF746FE2E
:10473C00431C00D038BD2B68002BFBD0236038BD48
:10474C00C80A002038B50C46114600228446074D95
:10475C0020462A601A466446FCF738FE431C00D0FB
:10476C0038BD2B68002BFBD0236038BDC80A002055
:10477C00F8B500BFF8BC08BC9E467047F8B500BF42
:08478C00F8BC08BC9E46704712
:1047940000000000010000000100000000002041B2
:1047A40073746172740D0A0069643A00737065650C
:1047B400643A00000000000000000000002F000028
:1047C40000000700070000147F147F1400242A7FD0
:1047D4002A1200626408132300364955225000004F
:1047E4000503000000001C224100000041221C00BF
:1047F4000014083E08140008083E0808000000A041
:10480400600000080808080800006060000000203C
:1048140010080402003E5149453E0000427F40001A
:10482400004261514946002141454B3100181412A0
:104834007F10002745454539003C4A49493000016D
:104844007109050300364949493600064949291EBC
:10485400000036360000000056360000000814221E
:10486400410000141414141400004122140800021E
:104874000151090600324959513E007C1211127C43
:10488400007F49494936003E41414122007F414170
:10489400221C007F49494941007F09090901003E62
:1048A4004149497A007F0808087F0000417F4100A0
:1048B400002040413F01007F08142241007F404016
:1048C4004040007F020C027F007F0408107F003EFE
:1048D4004141413E007F09090906003E4151215EE4
:1048E400007F091929460046494949310001017FE1
:1048F4000101003F4040403F001F2040201F003F77
:104904004038403F00631408146300070870080728
:1049140000615149454300007F41410000552A553B
:104924002A55000041417F000004020102040040B6
:1049340040404040000001020400002054545478D8
:10494400007F4844443800384444442000384444F8
:10495400487F00385454541800087E090102001896
:10496400A4A4A47C007F080404780000447D4000D3
:10497400004080847D00007F102844000000417FB7
:104984004000007C04180478007C08040478003893
:104994004444443800FC242424180018242418FC1B
:1049A400007C0804040800485454542000043F4484
:1049B4004020003C4040207C001C2040201C003C47
:1049C4004030403C004428102844001CA0A0A07C97
:1049D400004464544C4414141414141400000000CF
:1049E400000000000000000000000000000000F8CB
:1049F40000000000000000333000000000100C062E
:104A0400100C0600000000000000000040C07840C8
:104A1400C0784000043F04043F040400007088FC94
:104A240008300000001820FF211E0000F008F000EC
:104A3400E018000000211C031E211E0000F008885D
:104A4400700000001E2123241927211010160E00C7
:104A5400000000000000000000000000000000E072
:104A64001804020000000007182040000002041887
:104A7400E00000000040201807000000404080F0E3
:104A8400804040000202010F01020200000000F019
:104A9400000000000101011F0101010000000000ED
:104AA4000000000080B07000000000000000000062
:104AB40000000000000101010101010100000000EB
:104AC4000000000000303000000000000000000082
:104AD40080601804006018060100000000E010085F
:104AE4000810E000000F102020100F00001010F834
:104AF400000000000020203F202000000070080873
:104B040008887000003028242221300000300888F2
:104B1400884830000018202020110E000000C0201A
:104B240010F8000000070424243F240000F808883B
:104B3400880808000019212020110E0000E01088C8
:104B440088180000000F112020110E0000380808FA
:104B5400C83808000000003F00000000007088080A
:104B640008887000001C222121221C0000E010088B
:104B74000810E0000000312222110F00000000C0E4
:104B8400C000000000000030300000000000008081
:104B94000000000000008060000000000000804071
:104BA400201008000001020408102000404040408A
:104BB40040404000040404040404040000081020DD
:104BC4004080000000201008040201000070480822
:104BD4000808F0000000003036010000C030C8288A
:104BE400E810E0000718272423140B000000C03845
:104BF400E0000000203C23020227382008F88888BF
:104C040088700000203F202020110E00C0300808CA
:104C140008083800071820202010080008F80808A1
:104C24000810E000203F202020100F0008F888889A
:104C3400E8081000203F20202320180008F8888866
:104C4400E8081000203F200003000000C0300808DE
:104C54000838000007182020221E020008F8080067
:104C64000008F808203F210101213F20000808F82E
:104C7400080800000020203F202000000000080851
:104C8400F8080800C08080807F00000008F888C011
:104C940028180800203F20012638200008F80800C2
:104CA40000000000203F20202020300008F8F800F9
:104CB400F8F80800203F003F003F200008F830C00B
:104CC4000008F808203F200007183F00E0100808FB
:104CD4000810E0000F10202020100F0008F808082A
:104CE4000808F000203F210101010000E01008083D
:104CF4000810E0000F18242438504F0008F8888862
:104D040088887000203F2000030C30200070880841
:104D1400080838000038202121221C00180808F84F
:104D2400080818000000203F2000000008F80800D0
:104D34000008F808001F202020201F0008788800A1
:104D440000C83808000007380E010000F80800F811
:104D54000008F800033C0700073C030008186880BB
:104D64008068180820302C03032C30200838C80031
:104D7400C83808000000203F200000001008080880
:104D8400C83808002038262120201800000000FE22
:104D9400020202000000007F40404000000C30C0CE
:104DA40000000000000000010638C00000020202FA
:104DB400FE000000004040407F00000000000402AC
:104DC40002020400000000000000000000000000D7
:104DD40000000000808080808080808000020204C7
:104DE40000000000000000000000000000008080BF
:104DF400808000000019242222223F2008F800802D
:104E040080000000003F112020110E0000000080EF
:104E140080800000000E112020201100000000807E
:104E24008088F800000E112020103F2000008080B0
:104E340080800000001F222222221300008080F0C4
:104E4400888888180020203F2020000000008080EF
:104E540080808000006B94949493600008F8008034
:104E640080800000203F210000203F20008098988F
:104E7400000000000020203F2020000000000080EF
:104E84009898000000C08080807F000008F800002F
:104E940080808000203F24022D302000000808F884
:104EA400000000000020203F20200000808080803F
:104EB40080808000203F20003F20003F80800080D1
:104EC40080800000203F210000203F2000008080DF
:104ED40080800000001F202020201F008080008090
:104EE4008000000080FFA12020110E00000000803F
:104EF40080808000000E112020A0FF808080800030
:104F04008080800020203F2120000100000080805C
:104F1400808080000033242424241900008080E051
:104F2400808000000000001F20200000808000001E
:104F340000808000001F202020103F2080808000FF
:104F44000080808000010E3008060100808000800F
:104F5400008080800F300C030C300F000080800034
:104F6400808080000020312E0E312000808080005F
:104F74000080808080818E7018060100008080800F
:104F8400808080000021302C2221300000000000AD
:104F9400807C020200000000003F40400002027CCE
:104FA400800000000040403F0000000000000000BE
:104FB400FF00000000000000FF00000000000000EF
:104FC40000000000010203040607080900000000B5
:104FD4000102030402030405060708090A0B0C0D69
:0C4FE4000E0F101000000000380000202C
:084FF000D1380008310100086E
:044FF8000D0100089F
:104FFC00D6070000B40D0000AE001040B081FFA138
:10500C00A6A83FC8D300D580D805D9F1DA12D8307C
:10501C008D14AF000024F40001000000100000000B
:10502C0038000020000000000000000024030020D5
:10503C008C030020F403002000000000000000009E
:10504C000000000000000000000000000000000054
:10505C000000000000000000000000000000000044
:10506C000000000000000000000000000000000034
:10507C000000000000000000000000000000000024
:10508C000000000000000000000000000000000014
:10509C000000000000000000000000000000000004
:1050AC0000000000000000000000000000000000F4
:1050BC0000000000000000000000000000000000E4
:1050CC0000000000000000000000000000000000D4
:1050DC0001000000000000000E33CDAB34126DE671
:1050EC00ECDE05000B0000000000000000000000DA
:1050FC0000000000000000000000000000000000A4
:10510C000000000000000000000000000000000093
:10511C000000000000000000000000000000000083
:10512C000000000000000000000000000000000073
:10545C00840A00200000000000000000640400200A
:10546C00640400206C0400206C04002074040020F0
:10547C00740400207C0400207C04002084040020A0
:10548C00840400208C0400208C0400209404002050
:10549C00940400209C0400209C040020A404002000
:1054AC00A4040020AC040020AC040020B4040020B0
:1054BC00B4040020BC040020BC040020C404002060
:1054CC00C4040020CC040020CC040020D404002010
:1054DC00D4040020DC040020DC040020E4040020C0
:1054EC00E4040020EC040020EC040020F404002070
:1054FC00F4040020FC040020FC040020040500201F
:10550C00040500200C0500200C05002014050020CB
:10551C00140500201C0500201C050020240500207B
:10552C00240500202C0500202C050020340500202B
:10553C00340500203C0500203C05002044050020DB
:10554C00440500204C0500204C050020540500208B
:10555C00540500205C0500205C050020640500203B
:10556C00640500206C0500206C05002074050020EB
:10557C00740500207C0500207C050020840500209B
:10558C00840500208C0500208C050020940500204B
:10559C00940500209C0500209C050020A4050020FB
:1055AC00A4050020AC050020AC050020B4050020AB
:1055BC00B4050020BC050020BC050020C40500205B
:1055CC00C4050020CC050020CC050020D40500200B
:1055DC00D4050020DC050020DC050020E4050020BB
:1055EC00E4050020EC050020EC050020F40500206B
:1055FC00F4050020FC050020FC050020040600201A
:10560C00040600200C0600200C06002014060020C6
:10561C00140600201C0600201C0600202406002076
:10562C00240600202C0600202C0600203406002026
:10563C00340600203C0600203C06002044060020D6
:10564C00440600204C0600204C0600205406002086
:10565C00540600205C0600205C0600206406002036
:10566C00640600206C0600206C06002074060020E6
:10567C00740600207C0600207C0600208406002096
:10568C00840600208C0600208C0600209406002046
:10569C00940600209C0600209C060020A4060020F6
:1056AC00A4060020AC060020AC060020B4060020A6
:1056BC00B4060020BC060020BC060020C406002056
:1056CC00C4060020CC060020CC060020D406002006
:1056DC00D4060020DC060020DC060020E4060020B6
:1056EC00E4060020EC060020EC060020F406002066
:1056FC00F4060020FC060020FC0600200407002015
:10570C00040700200C0700200C07002014070020C1
:10571C00140700201C0700201C0700202407002071
:10572C00240700202C0700202C0700203407002021
:10573C00340700203C0700203C07002044070020D1
:10574C00440700204C0700204C0700205407002081
:10575C00540700205C0700205C0700206407002031
:10576C00640700206C0700206C07002074070020E1
:10577C00740700207C0700207C0700208407002091
:10578C00840700208C0700208C0700209407002041
:10579C00940700209C0700209C070020A4070020F1
:1057AC00A4070020AC070020AC070020B4070020A1
:1057BC00B4070020BC070020BC070020C407002051
:1057CC00C4070020CC070020CC070020D407002001
:1057DC00D4070020DC070020DC070020E4070020B1
:1057EC00E4070020EC070020EC070020F407002061
:1057FC00F4070020FC070020FC0700200408002010
:10580C00040800200C0800200C08002014080020BC
:10581C00140800201C0800201C080020240800206C
:10582C00240800202C0800202C080020340800201C
:10583C00340800203C0800203C08002044080020CC
:10584C00440800204C0800204C080020540800207C
:10585C00540800205C0800205C080020FFFFFFFFBC
:04586C000000020036
:040000050800166D6C
:00000001FF
