:020000040800F2
:1000000000500020351A0008791800087B180008F5
:100010007D1800087F180008811800080000000003
:10002000000000000000000000000000831800082D
:1000300085180008000000008718000889180008CB
:100040007D1A00087D1A00087D1A00087D1A000834
:100050007D1A00087D1A00087D1A00089118000812
:100060009B1800087D1A00087D1A00087D1A0008F8
:100070007D1A00087D1A00087D1A00087D1A000804
:100080007D1A00087D1A00087D1A00087D1A0008F4
:10009000A51800087D1A00087D1A00087D1A0008BE
:1000A0007D1A0008B51800087D1A00087D1A00089E
:1000B0007D1A00087D1A00087D1A00087D1A0008C4
:1000C0007D1A00087D1A00087D1A00087D1A0008B4
:1000D0007D1A00087D1A00087D1A00087D1A0008A4
:1000E000C51800087D1A00087D1A000800000000ED
:1000F0000000000000000000000000000000000000
:0C01000000000000000000005FF808F1A3
:1001100010B5054C237833B9044B13B10448AFF341
:1001200000800123237010BD58040020000000004F
:10013000044E000808B5034B1BB103490348AFF355
:10014000008008BD000000005C040020044E000890
:100150004FF0FF0C1CEAD0521EBF1CEAD15392EAAA
:100160000C0F93EA0C0F6FD01A4480EA010C400286
:1001700018BF5FEA41211ED04FF0006343EA5010E0
:1001800043EA5111A0FB01310CF00040B1F5000F22
:100190003EBF490041EAD3715B0040EA010062F1D1
:1001A0007F02FD2A1DD8B3F1004F40EBC25008BFBB
:1001B00020F00100704790F0000F0CF0004C08BFD9
:1001C00049024CEA502040EA51207F3AC2BFD2F1A6
:1001D000FF0340EAC250704740F400004FF00003B4
:1001E000013A5DDC12F1190FDCBF00F000407047EE
:1001F000C2F10002410021FA02F1C2F1200200FA2C
:1002000002FC5FEA310040F1000053EA4C0308BFF2
:1002100020EADC70704792F0000F00F0004C02BF43
:10022000400010F4000F013AF9D040EA0C0093F0BE
:10023000000F01F0004C02BF490011F4000F013B18
:10024000F9D041EA0C018FE70CEAD15392EA0C0F86
:1002500018BF93EA0C0F0AD030F0004C18BF31F0F1
:10026000004CD8D180EA010000F00040704790F0C7
:10027000000F17BF90F0004F084691F0000F91F06B
:10028000004F14D092EA0C0F01D142020FD193EA31
:100290000C0F03D14B0218BF084608D180EA0100B9
:1002A00000F0004040F0FE4040F40000704740F095
:1002B000FE4040F44000704781F0004102E000BF82
:1002C00083F0004330B54FEA41044FEA430594EA16
:1002D000050F08BF90EA020F1FBF54EA000C55EA51
:1002E000020C7FEA645C7FEA655C00F0E2804FEA22
:1002F0005454D4EB5555B8BF6D420CDD2C4480EA04
:10030000020281EA030382EA000083EA010180EA33
:10031000020281EA0303362D88BF30BD11F0004F81
:100320004FEA01314FF4801C4CEA113102D04042B7
:1003300061EB410113F0004F4FEA03334CEA1333F2
:1003400002D0524263EB430394EA050F00F0A7800A
:10035000A4F10104D5F1200E0DDB02FA0EFC22FA05
:1003600005F2801841F1000103FA0EF2801843FAF9
:1003700005F359410EE0A5F120050EF1200E012AEA
:1003800003FA0EFC28BF4CF0020C43FA05F3C01828
:1003900051EBE37101F0004507D54FF0000EDCF1A1
:1003A000000C7EEB00006EEB0101B1F5801F1BD34A
:1003B000B1F5001F0CD349085FEA30004FEA3C0C4E
:1003C00004F101044FEA445212F5800F80F09A8044
:1003D000BCF1004F08BF5FEA500C50F1000041EB48
:1003E000045141EA050130BD5FEA4C0C404141EB4C
:1003F0000101013C28BFB1F5801FE9D291F0000F47
:1004000004BF01460020B1FA81F308BF2033A3F1F5
:100410000B03B3F120020CDA0C3208DD02F1140CEC
:10042000C2F10C0201FA0CF021FA02F10CE002F127
:100430001402D8BFC2F1200C01FA02F120FA0CFC20
:10044000DCBF41EA0C019040E41AA2BF01EB045169
:10045000294330BD6FEA04041F3C1CDA0C340EDC67
:1004600004F11404C4F1200220FA04F001FA02F3AA
:1004700040EA030021FA04F345EA030130BDC4F168
:100480000C04C4F1200220FA02F001FA04F340EA5D
:100490000300294630BD21FA04F0294630BD94F00E
:1004A000000F83F4801306BF81F480110134013DF5
:1004B0004EE77FEA645C18BF7FEA655C29D094EA66
:1004C000050F08BF90EA020F05D054EA000C04BFE4
:1004D0001946104630BD91EA030F1EBF00210020CF
:1004E00030BD5FEA545C05D14000494128BF41F06E
:1004F000004130BD14F580043CBF01F5801130BDD2
:1005000001F0004545F0FE4141F470014FF000005C
:1005100030BD7FEA645C1ABF194610467FEA655C0D
:100520001CBF0B46024650EA013406BF52EA0335AF
:1005300091EA030F41F4002130BD00BF90F0000F9D
:1005400004BF0021704730B54FF4806404F13204D9
:100550004FF000054FF0000150E700BF90F0000F92
:1005600004BF0021704730B54FF4806404F13204B9
:1005700010F0004548BF40424FF000013EE700BF89
:1005800042004FEAE2014FEA31014FEA02701FBF19
:1005900012F07F4393F07F4F81F06051704732F04B
:1005A0007F4208BF704793F07F4F04BF41F40021A2
:1005B000704730B54FF4607401F0004521F0004100
:1005C0001CE700BF50EA010208BF704730B54FF08A
:1005D00000050AE050EA010208BF704730B511F08B
:1005E000004502D5404261EB41014FF4806404F1C3
:1005F00032045FEA915C3FF4D8AE4FF003025FEA49
:10060000DC0C18BF03325FEADC0C18BF033202EBCC
:10061000DC02C2F1200300FA03FC20FA02F001FA26
:1006200003FE40EA0E0021FA02F11444BDE600BFC9
:100630004FEA410212F5001215D211D56FF478730A
:10064000B3EB625212D94FEAC12343F0004343EAAD
:10065000505311F0004F23FA02F018BF4042704788
:100660004FF00000704750EA013005D111F0004012
:1006700008BF6FF0004070474FF00000704700BFA8
:100680004FEA4102B2F1E04324BFB3F5001CDCF1B4
:10069000FE5C0DD901F0004C4FEAC0024CEA5070EC
:1006A000B2F1004F40EB830008BF20F0010070471B
:1006B00011F0804F21D113F13872BCBF01F000401E
:1006C000704741F480114FEA5252C2F11802C2F150
:1006D000200C10FA0CF320FA02F018BF40F00100D1
:1006E0004FEAC1234FEAD32303FA0CFC40EA0C0083
:1006F00023FA02F34FEA4303CCE77FEA625307D1C0
:1007000050EA01331EBF4FF0FE4040F440007047F6
:1007100001F0004040F0FE4040F40000704700BF90
:1007200080F0004002E000BF81F0004142001FBFA6
:100730005FEA410392EA030F7FEA226C7FEA236CAF
:100740006AD04FEA1262D2EB1363C1BFD2184140A4
:1007500048404140B8BF5B42192B88BF704710F03A
:10076000004F40F4000020F07F4018BF404211F0DD
:10077000004F41F4000121F07F4118BF494292EA45
:10078000030F3FD0A2F1010241FA03FC10EB0C0071
:10079000C3F1200301FA03F100F0004302D54942FE
:1007A00060EB4000B0F5000F13D3B0F1807F06D3AB
:1007B00040084FEA310102F10102FE2A51D2B1F1A3
:1007C000004F40EBC25008BF20F0010040EA030098
:1007D0007047490040EB0000013A28BFB0F5000F18
:1007E000EDD2B0FA80FCACF1080CB2EB0C0200FACE
:1007F0000CF0AABF00EBC25052421843BCBFD0401D
:100800001843704792F0000F81F4000106BF80F496
:1008100000000132013BB5E74FEA41037FEA226C59
:1008200018BF7FEA236C21D092EA030F04D092F024
:10083000000F08BF0846704790EA010F1CBF002058
:10084000704712F07F4F04D1400028BF40F00040B5
:10085000704712F100723CBF00F50000704700F0D5
:10086000004343F0FE4040F4000070477FEA2262FC
:1008700016BF08467FEA23630146420206BF5FEACD
:10088000412390EA010F40F4800070474FF00003CD
:1008900004E000BF10F0004348BF40425FEA000C94
:1008A00008BF704743F0964301464FF000001CE03C
:1008B00050EA010208BF70474FF000030AE000BF92
:1008C00050EA010208BF704711F0004302D54042D0
:1008D00061EB41015FEA010C02BF84460146002042
:1008E00043F0B64308BFA3F18053A3F50003BCFA5D
:1008F0008CF2083AA3EBC25310DB01FA02FC63440A
:1009000000FA02FCC2F12002BCF1004F20FA02F210
:1009100043EB020008BF20F00100704702F1200203
:1009200001FA02FCC2F1200250EA4C0021FA02F264
:1009300043EB020008BF20EADC7070474FF0FF3C39
:1009400006E000BF4FF0010C02E000BF4FF0010CC9
:100950004DF804CD4FEA40024FEA41037FEA226C92
:1009600018BF7FEA236C11D001B052EA530C18BFB4
:1009700090EA010F58BFB2EB030088BFC81738BF19
:100980006FEAE17018BF40F0010070477FEA226C07
:1009900002D15FEA402C05D17FEA236CE4D15FEA03
:1009A000412CE1D05DF8040B704700BF8446084637
:1009B0006146FFE70FB5FFF7C9FF002848BF10F1F8
:1009C000000F0FBD4DF808EDFFF7F4FF0CBF01203D
:1009D00000205DF808FB00BF4DF808EDFFF7EAFFC7
:1009E00034BF012000205DF808FB00BF4DF808ED82
:1009F000FFF7E0FF94BF012000205DF808FB00BF77
:100A00004DF808EDFFF7D2FF94BF012000205DF8FC
:100A100008FB00BF4DF808EDFFF7C8FF34BF012009
:100A200000205DF808FB00BF4FEA4002B2F1FE4F24
:100A30000FD34FF09E03B3EB12620DD94FEA0023A0
:100A400043F0004310F0004F23FA02F018BF404279
:100A500070474FF00000704712F1610F01D1420260
:100A600005D110F0004008BF6FF0004070474FF014
:100A70000000704770B54FF0FF0C4CF4E06C1CEABE
:100A800011541DBF1CEA135594EA0C0F95EA0C0F84
:100A900000F0DEF82C4481EA030621EA4C5123EAF7
:100AA0004C5350EA013518BF52EA033541F4801126
:100AB00043F4801338D0A0FB02CE4FF00005E1FBD9
:100AC00002E506F00042E0FB03E54FF00006E1FB23
:100AD00003569CF0000F18BF4EF0010EA4F1FF0466
:100AE000B6F5007F64F5407404D25FEA4E0E6D41A6
:100AF00046EB060642EAC62141EA55514FEAC520B7
:100B000040EA5E504FEACE2EB4F1FD0C88BFBCF532
:100B1000E06F1ED8BEF1004F08BF5FEA500E50F1E3
:100B2000000041EB045170BD06F0004646EA0101A9
:100B300040EA020081EA0301B4EB5C04C2BFD4EBDB
:100B40000C0541EA045170BD41F480114FF0000ED4
:100B5000013C00F3AB8014F1360FDEBF002001F042
:100B6000004170BDC4F10004203C35DA0C341BDCBC
:100B700004F11404C4F1200500FA05F320FA04F08E
:100B800001FA05F240EA020001F0004221F00041C2
:100B900010EBD37021FA04F642EB06015EEA430E35
:100BA00008BF20EAD37070BDC4F10C04C4F1200565
:100BB00000FA04F320FA05F001FA04F240EA020018
:100BC00001F0004110EBD37041F100015EEA430EE9
:100BD00008BF20EAD37070BDC4F1200500FA05F209
:100BE0004EEA020E20FA04F301FA05F243EA020388
:100BF00021FA04F001F0004121FA04F220EA020097
:100C000000EBD3705EEA430E08BF20EAD37070BDDC
:100C100094F0000F0FD101F00046400041EB0101BC
:100C200011F4801F08BF013CF7D041EA060195F09E
:100C3000000F18BF704703F00046520043EB030358
:100C400013F4801F08BF013DF7D043EA0603704745
:100C500094EA0C0F0CEA135518BF95EA0C0F0CD050
:100C600050EA410618BF52EA4306D1D181EA030196
:100C700001F000414FF0000070BD50EA410606BF90
:100C80001046194652EA430619D094EA0C0F02D1D5
:100C900050EA013613D195EA0C0F05D152EA03361A
:100CA0001CBF104619460AD181EA030101F0004138
:100CB00041F0FE4141F470014FF0000070BD41F081
:100CC000FE4141F4780170BD70B54FF0FF0C4CF45B
:100CD000E06C1CEA11541DBF1CEA135594EA0C0F7A
:100CE00095EA0C0F00F0A7F8A4EB050481EA030EC7
:100CF00052EA03354FEA013100F088804FEA0333AE
:100D00004FF0805545EA131343EA12634FEA02227B
:100D100045EA111545EA10654FEA00260EF000413C
:100D20009D4208BF964244F1FD0404F5407402D28E
:100D30005B084FEA3202B61A65EB03055B084FEA1F
:100D400032024FF480104FF4002CB6EB020E75EB1C
:100D5000030E22BFB61A754640EA0C005B084FEA44
:100D60003202B6EB020E75EB030E22BFB61A7546C1
:100D700040EA5C005B084FEA3202B6EB020E75EB0C
:100D8000030E22BFB61A754640EA9C005B084FEA84
:100D90003202B6EB020E75EB030E22BFB61A754691
:100DA00040EADC0055EA060E18D04FEA051545EA80
:100DB00016754FEA06164FEAC30343EA52734FEA29
:100DC000C2025FEA1C1CC0D111F4801F0BD141EAA2
:100DD00000014FF000004FF0004CB6E711F4801F07
:100DE00004BF01430020B4F1FD0C88BFBCF5E06FE7
:100DF0003FF6AFAEB5EB030C04BFB6EB020C5FEAF7
:100E0000500C50F1000041EB045170BD0EF0004E4B
:100E10004EEA113114EB5C04C2BFD4EB0C0541EA7D
:100E2000045170BD41F480114FF0000E013C90E67A
:100E300045EA060E8DE60CEA135594EA0C0F08BF3E
:100E400095EA0C0F3FF43BAF94EA0C0F0AD150EA3D
:100E500001347FF434AF95EA0C0F7FF425AF1046D0
:100E600019462CE795EA0C0F06D152EA03353FF4F8
:100E7000FDAE1046194622E750EA410618BF52EA75
:100E800043067FF4C5AE50EA41047FF40DAF52EA49
:100E900043057FF4EBAE12E74FF0FF3C06E000BFE6
:100EA0004FF0010C02E000BF4FF0010C4DF804CDF3
:100EB0004FEA410C7FEA6C5C4FEA430C18BF7FEAB3
:100EC0006C5C1BD001B050EA410C0CBF52EA430CE1
:100ED00091EA030F02BF90EA020F0020704710F161
:100EE000000F91EA030F58BF994208BF90422CBFF0
:100EF000D8176FEAE37040F0010070474FEA410CE9
:100F00007FEA6C5C02D150EA013C07D14FEA430C06
:100F10007FEA6C5CD6D152EA033CD3D05DF8040B77
:100F2000704700BF8446104662468C4619466346A9
:100F300000E000BF01B5FFF7B7FF002848BF10F180
:100F4000000F01BD4DF808EDFFF7F4FF0CBF0120C5
:100F500000205DF808FB00BF4DF808EDFFF7EAFF41
:100F600034BF012000205DF808FB00BF4DF808EDFC
:100F7000FFF7E0FF94BF012000205DF808FB00BFF1
:100F80004DF808EDFFF7CEFF94BF012000205DF87B
:100F900008FB00BF4DF808EDFFF7C4FF34BF012088
:100FA00000205DF808FB00BF08B50C480C4B03603F
:100FB0000823436000238360C3604FF480320261E2
:100FC0004361037643768376C3760377437700F0F5
:100FD000B5FD00B908BD00F09FF9FBE774040020DF
:100FE0000064004010B586B000230293039304937D
:100FF000059302681A4B9A4201D006B010BD03F562
:10100000D633DA6942F00072DA61DA6902F000720E
:101010000092009A9A6942F004029A619B6903F077
:1010200004030193019B4FF4006302930D4C02A94A
:10103000204601F0B5F94FF4805302930223039345
:101040000323059302A9204601F0AAF900221146C4
:10105000142001F04BF9142001F080F9CDE700BF16
:10106000006400400008014010B4104B1B68104A97
:10107000A2FB03239B0C0F4A13604FF0E02254693C
:1010800000FB03FC9369002104E0E01A02441144D0
:10109000614509D21A464FF0E0239B699A42FAD083
:1010A000F3D9D21A1144F3E710BC70471C0000209A
:1010B00083DE1B439C04002030B587B000240294DB
:1010C000039404940594244B9A6942F004029A61B3
:1010D0009A6902F004020092009A9A6942F00802AA
:1010E0009A619B6903F008030193019B1B4D224603
:1010F0000321284601F066FA032302930123039398
:1011000004940223059302A9284601F049F940F608
:1011100006430293124B0393049402A9114801F071
:101120003FF922462146072001F0E0F8072001F0B0
:1011300015F922462146082001F0D8F8082001F0D0
:101140000DF922462146282001F0D0F8282001F090
:1011500005F907B030BD00BF001002400008014093
:1011600000001110000C014008B50B480B4B036048
:101170000B4B436000238360C3604FF480420261E5
:1011800043618361C361036201F0A6FB00B908BD3E
:1011900000F0C2F8FBE700BFA004002000540040AC
:1011A000A086010010B586B0002302930393049338
:1011B00005930268114B9A4201D006B010BD104C45
:1011C000A36943F00803A361A36903F00803009334
:1011D000009BC0230293122303930323059302A9C8
:1011E000084801F0DDF8E36943F40013E361E369C3
:1011F00003F400130193019BDFE700BF005400409C
:1012000000100240000C014008B502280BD0042851
:1012100010D0B0F5806F11D0B0F5006F0DD10B4B31
:1012200004221A6009E00121084B1960084801F006
:10123000CFF902E0054B02221A6008BD034B0322DE
:101240001A60044B01221A60F7E700BFF80400207F
:1012500000080140F40400200268074B9A4200D0C5
:10126000704700B589B0054B01AA002100F03EFE91
:1012700009B05DF804FB00BF006400408C0500204D
:1012800038B5104C204600F011F9B4F900500E4B5F
:10129000D3E90001FFF7F4F904462846FFF7FAFA0C
:1012A00001460A4D2246284600F0E6F9E86BFFF7B2
:1012B000BBFB00B200F036F9054A138801331380F6
:1012C00038BD00BF9C05002068050020FC040020FC
:1012D0007005002010B58AB0012208920023069301
:1012E000079244F22001009101934FF6E0710291C0
:1012F000039305920493074C6946204600F0C4FC12
:10130000204600F047FD0221204600F09AFE0AB078
:1013100010BD00BF7404002072B6FEE700B591B0A6
:101320002822002106A802F015FB00230193029356
:101330000393049305930223069301220A92102239
:101340000B920D934FF460130F9306A801F06AFC03
:1013500080B90F23019302210291002303934FF4DC
:1013600080620492059301A801F09CFE20B911B09F
:101370005DF804FBFFF7D0FFFFF7CEFF0000000091
:1013800030B589B000F0A2FBFFF7C8FFFFF794FE6D
:10139000FFF70AFEFFF7E8FE00F0A0FA00F0F6FA09
:1013A00000F0FAF800F02CF9FFF794FF304801F054
:1013B00083FF4FF0FF3307222E492F4802F039FAFE
:1013C0002E4C2F4B02932F4B01932F4B009344F63F
:1013D00020631A460321204600F012FA2B4B2365A6
:1013E0002B4B0FCB08AC04E90F002A4B1888FFF7F2
:1013F000B5F819A3D3E90023FFF73CFB02F06CFB1F
:1014000017A3D3E90023FEF75DFF17A3D3E9002359
:10141000FFF730FB0022204BFFF72CFB04460D4664
:101420001E4BC3E900451E4BB3F90050FFF728F9E6
:1014300004462846FFF72EFA014622460F4800F0E0
:101440001BF90121174801F0C3F81748FFF70CFEFC
:10145000CBE700BFAFF30080FCA9F1D24D62603F43
:10146000703D0AD7A370F13F158C4AEA043433402B
:10147000C0050020304E000808060020FC040020B3
:1014800000005041CDCCCC3C0000F04100409C46D7
:10149000204E000870050020000044406805002030
:1014A0009C0500200008014040420F0030B5034673
:1014B000B0F808C0A0F80AC0184C2278617841EA58
:1014C00002210181A278E07840EA022000B258802F
:1014D00018802579627942EA052212B2104D85FB07
:1014E000025ED217A2EB6E029A80A2799A71A1EBEA
:1014F0000C0CBCF5805F09DD1A69013A1A611A69A2
:1015000001EB42319A89891A596130BD1CF5805F1F
:10151000F5DA1A6901321A61F1E700BF8C05002083
:101520006766666600B583B00A4900238B60CB60AE
:101530004FF400730B6008230B61074A40FA03F372
:101540001370507001AB054800F052FC03B05DF819
:1015500004FB00BF740500209405002074040020E3
:1015600010B584B000240EE04FF480730293012381
:101570000193074A2244009200227821054801F095
:1015800089FA0134E4B21A2CEED904B010BD00BFC0
:1015900000000020A004002008B5C82000F0BAFA1E
:1015A000FFF7DEFF08BD000000B587B08DF817001B
:1015B0004FF480730293012301930DF117020092FF
:1015C00000227821024801F065FA07B05DF804FBBB
:1015D000A004002000B587B08DF817004FF4807389
:1015E0000293012301930DF117020092402278210A
:1015F000024801F04FFA07B05DF804FBA004002098
:1016000038B5002509E00020FFF7E4FF0134E4B21B
:1016100014F0800FF7D00135EDB2072D0CD8A5F1ED
:101620005000C0B2FFF7C0FF0020FFF7BDFF102041
:10163000FFF7BAFF0024EBE738BD0366C26581659A
:10164000009B0360019B4360029B836070470160C5
:1016500042608360704738B505460C460068FFF766
:10166000D9F900B12C6004F1004421462868FFF745
:10167000B3F900B12C6038BDF8B5044610462162BC
:101680006261FFF751F80546E062266D00213046A1
:10169000FFF798F960B900212846FFF7BBF9002849
:1016A0002ED029463046FFF797F9002840F0A38056
:1016B000666D00213046FFF785F958B900212846AC
:1016C000FFF7A8F9F8B129463046FFF7A3F900283B
:1016D00040F09380A36D032B18D0042B49D0A36A4C
:1016E0006362E36AA362E369A361236AE361236936
:1016F000E36063692361A36D032B7AD0A06CF8BD0E
:1017000005F10041CEE705F10041DDE721682846FB
:10171000FEF71EFD206361682846FEF719FD0146AD
:10172000606BFFF703F86063A668A16A2846FEF7BE
:10173000FBFF01463046FEF70BFDA063206EFFF76E
:10174000A5F8014604F13400FFF785FF616B206BBB
:10175000FEF7ECFFA16BFEF7E9FFE063E06DFFF73A
:1017600095F8014604F13C00FFF775FFE36B236435
:10177000B5E72768A66A31462846FEF7D5FF014639
:101780003846FEF7E5FC206361682846FEF7E0FC7A
:101790006063A76831463046FEF7C8FF0146284619
:1017A000FEF7C2FF616AFEF7C1FF01463846FEF749
:1017B000CFFCA063206EFFF769F8014604F1340006
:1017C000FFF749FF616B206BFEF7B0FFA16BFEF7DF
:1017D000ADFF6064E16CFEF7A9FFA064E06DFFF768
:1017E00055F8014604F14800FFF735FFA36CE364A8
:1017F00075E7E06B83E7002081E700207FE70000CA
:1018000010B584B0094C4466094C8466DDF820C0EC
:10181000CDF808C0DDF81CC0CDF804C0DDF818C054
:10182000CDF800C0FFF709FF04B010BD3B1600085B
:101830004F16000882B00E4B9A6942F001029A617D
:101840009A6902F001020092009ADA6942F080522D
:10185000DA61DB6903F080530193019B054A536809
:1018600023F0E06343F00073536002B0704700BFA1
:101870000010024000000140FEE7FEE7FEE7FEE741
:10188000FEE770477047704708B500F031F908BDB2
:1018900008B5022000F0A6FE08BD08B5042000F03F
:1018A000A1FE08BD08B5024800F0E9FB08BD00BF75
:1018B0007404002008B5024801F036FD08BD00BFE1
:1018C000C005002008B54FF4806000F08BFE4FF497
:1018D000006000F087FE08BD7047000000B587B0CB
:1018E00000230293039304930593009301931548F7
:1018F000154A02603F224260836040F2E732C260D4
:1019000003614361836101F007FE90B94FF4805396
:10191000029302A90B4801F037FE68B90023009337
:1019200001936946074801F09DFE40B907B05DF894
:1019300004FBFFF7F1FCE9E7FFF7EEFCEEE7FFF74A
:10194000EBFCF3E7C0050020002C014002680E4BC1
:101950009A4200D0704700B583B003F564439A699A
:1019600042F400629A619B6903F400630193019B56
:1019700000221146192000F0B9FC192000F0EEFCFD
:1019800003B05DF804FB00BF002C014008B50A4815
:101990000A4B03604FF4E133436000238360C3606C
:1019A00003610C2242618361C36101F013FF00B93E
:1019B00008BDFFF7B1FCFBE708060020004400402B
:1019C00010B586B000230293039304930593026835
:1019D000164B9A4201D006B010BD03F5E633DA6922
:1019E00042F40032DA61DA6902F400320092009ABD
:1019F0009A6942F004029A619B6903F0040301931F
:101A0000019B042302930223039303230593084CB1
:101A100002A9204600F0C4FC08230293002303938C
:101A2000049302A9204600F0BBFCD4E70044004028
:101A3000000801400C480D490D4A002302E0D4582B
:101A4000C4500433C4188C42F9D30A4A0A4C002308
:101A500001E013600432A242FBD3FFF73DFF01F027
:101A600055FFFFF78DFC7047000000205404002054
:101A70004C5000085804002054060020FEE70000E7
:101A800010B504460E4B18784FF47A73B3FBF0F39D
:101A90000C4A1068B0FBF3F000F06EFC68B90F2C34
:101AA00001D901200AE0002221464FF0FF3000F06A
:101AB0001DFC054B1C60002000E0012010BD00BF94
:101AC000200000201C0000202400002008B5074A48
:101AD000136843F010031360032000F0F5FB0F20A0
:101AE000FFF7CEFFFFF7A6FE002008BD0020024052
:101AF000034A1168034B1B780B441360704700BF07
:101B00004C06002020000020014B1868704700BFE1
:101B10004C06002038B50446FFF7F6FF0546B4F141
:101B2000FF3F02D0044B1B781C44FFF7EDFF401B26
:101B3000A042FAD338BD00BF20000020002800F0EA
:101B4000A18038B5044690F82030D3B122681368DC
:101B500043F001031360FFF7D7FF054623685A6877
:101B600012F0010F10D1FFF7CFFF401B0A28F5D963
:101B7000636A43F400336362052384F82030012054
:101B800038BDFFF72FFAE1E71A6822F002021A6067
:101B9000FFF7BAFF054623685A6812F0020F0DD00E
:101BA000FFF7B2FF401B0A28F5D9636A43F40033FC
:101BB0006362052384F820300120E1E7227E012AB8
:101BC0003DD01A6822F080021A60637E012B3BD060
:101BD0002268136823F040031360A37E012B39D0E1
:101BE0002268136823F020031360E37E012B37D0B3
:101BF0002268136843F010031360237F012B35D054
:101C00002268136823F008031360637F012B33D02D
:101C10002268136823F004031360A368E268134387
:101C200022691343626913436268013A21681343CE
:101C3000CB6100206062012384F82030A0E71A689D
:101C400042F080021A60C0E72268136843F0400344
:101C50001360C2E72268136843F020031360C4E7EF
:101C60002268136823F010031360C6E72268136824
:101C700043F008031360C8E72268136843F00403C5
:101C80001360CAE701207047026890F82030013BDA
:101C9000DBB2012B05D9436A43F480234362012060
:101CA000704710B5D2F8003243F00103C2F8003299
:101CB0004B6903F01F03012000FA03F3D2F81C0262
:101CC0006FEA030C20EA0300C2F81C02C869C0B91D
:101CD000D2F80C020CEA0000C2F80C028C884869A9
:101CE000D1F80CE044EA0E44483042F830400C8809
:101CF0004869D1F808E044EA0E44483002EBC000DD
:101D00004460C86901281AD0886988BBD2F80402E7
:101D10000CEA0000C2F80402086978BBD2F8140289
:101D20000CEA0000C2F81402096A01292CD0D2F88A
:101D3000003223F00103C2F80032002010BDD2F8B7
:101D40000C021843C2F80C028C884869D1F800E0F4
:101D500044EA0E44483042F830408C894869D1F852
:101D600008E044EA0E44483002EBC0004460CBE790
:101D7000D2F804021843C2F80402CDE7D2F81402E4
:101D80001843C2F81402CFE7D2F81C120B43C2F872
:101D90001C32CCE770B5044690F82050EDB2012D0E
:101DA00006D0436A43F4002343620125284670BDF0
:101DB000022380F820300268136823F001031360C7
:101DC000FFF7A2FE064623685B6813F0010F0CD0F4
:101DD000FFF79AFE831B0A2BF5D9636A43F400339D
:101DE0006362052384F82030E0E700256562DDE7C3
:101DF00030B590F820C00468A4680CF1FF3C5FFA8D
:101E00008CFCBCF1010F6BD814F0E05F62D0C4F31E
:101E1000016CBCF1020F05D9436A43F4000343622D
:101E2000012062E0012404FA0CF41C608B68002B92
:101E30003DD10D68CB68046843EA45550CF11803A1
:101E40001B01E55003680C690CF1180E03EB0E132F
:101E50005C600B7D012B35D0D17993791B0443EA6B
:101E60000163517943EA012314790168234301EBAB
:101E70000C11C1F88C31D17893781B0443EA0163CB
:101E8000517843EA0123117802680B4302EB0C12EC
:101E9000C2F8883102680CF1180C4FEA0C1C52F899
:101EA0000C3043F0010342F80C3000201DE04C6878
:101EB00043EAC403CC6823430CF1180424010568E9
:101EC0002B51BFE7036803EB0E13596841F480718F
:101ED0005960C1E7436A43F400134362012004E000
:101EE000436A43F480234362012030BD90F820C050
:101EF0000CF1FF3C5FFA8CFCBCF1010F00F29B80FF
:101F000010B451B90468E46814F0030F10D1436AA7
:101F100043F40013436201207BE00468246914F059
:101F2000030F05D1436A43F400134362012070E0BC
:101F300001F11B042401D0F800C05CF8044004F057
:101F400004049460002C66D101F11B042401D0F834
:101F500000C05CF80440640D1460046801F11B0CBF
:101F60004FEA0C1C54F80C4004F00204D4600468DE
:101F70006444646804F00F04146104686444646891
:101F8000C4F307249461046864446468240C5461B5
:101F9000026802EB0112D2F8B8211A70026802EB53
:101FA0000112D2F8B821C2F307225A70026802EB7C
:101FB0000112D2F8B821C2F307429A70026802EB0C
:101FC0000112D2F8B821120EDA70026802EB011287
:101FD000D2F8BC211A71026802EB0112D2F8BC21BE
:101FE000C2F307225A71026802EB0112D2F8BC2137
:101FF000C2F307429A71026802EB0112D2F8BC21C7
:10200000120EDA7189B90268D36843F02003D360F5
:10201000002010BC704701F11B042401D0F800C05F
:102020005CF80440E408546097E70268136943F0E1
:1020300020031361ECE7436A43F4802343620120E9
:10204000704790F82030013BDBB2012B05D9436A81
:1020500043F48023436201207047026853691943A7
:102060005161002070477047704770477047704754
:1020700070477047704770477047704770472DE949
:10208000F84F054603685C69D3F804809F68D3F86D
:102090000CB0D3F810A0D3F8189014F001063BD080
:1020A00017F0010616D001229A6017F0020F08D12E
:1020B00017F0040F0CD117F0080606D04FF4805625
:1020C00008E0FFF7D0FF002604E0FFF7CFFF01E0B4
:1020D0004FF4006617F4807F0DD02B684FF48072A8
:1020E0009A6017F4007F40F0868017F4806F00F04C
:1020F000868046F4005617F4803F0DD02B684FF4CD
:1021000080329A6017F4003F40F0838017F4802FEC
:1021100000F0838046F4004614F0080F07D01BF04F
:10212000100F04D046F400762B681022DA6014F009
:10213000040F02D01BF0080F79D114F0020F04D065
:102140002B68DB6813F0030F78D114F0400F07D031
:102150001AF0100F04D046F480662B6810221A6122
:1021600014F0200F02D01AF0080F6BD114F0100FEA
:1021700004D02B681B6913F0030F6AD114F4003FDD
:1021800002D018F0100F68D114F4803F02D018F07C
:10219000080F69D114F4004F7AD018F0040F74D0EE
:1021A00014F4807F04D019F0010F01D046F001062D
:1021B00014F4007F04D019F0020F01D046F002069B
:1021C00014F4806F04D019F0040F01D046F0040617
:1021D00014F4006F59D019F0700956D0B9F1400FBE
:1021E00065D058D8B9F1200F5ED0B9F1300F42D187
:1021F00046F0200644E02846FFF736FF7BE717F459
:10220000006F02D046F4804675E72846FFF72FFF9F
:1022100071E72846FFF729FF7EE717F4002F02D069
:1022200046F4803678E72846FFF722FF74E72B68EC
:102230000822DA602846FFF71CFF7EE72846FFF7F2
:102240000BF882E72B6808221A612846FFF713FF74
:102250008CE72846FFF70EFF90E72B6810225A60A4
:102260002846FFF709FF8FE72B6808225A602846A7
:10227000FFF703FF8EE7B9F1100F01D146F0080612
:102280002A68936923F0700393612B6804225A60D3
:102290009EB9BDE8F88FB9F1500F0BD0B9F1600FBE
:1022A000EED146F48076EBE746F01006E8E746F01C
:1022B0004006E5E746F08006E2E76B6A1E436E6281
:1022C0002846FFF7DBFEE4E7074AD36823F4E06320
:1022D0001B041B0C000200F4E060034343F0BF63E7
:1022E00043F40033D360704700ED00E000B5194BB4
:1022F000DB68C3F30223C3F1070CBCF1040F28BF52
:102300004FF0040C03F1040EBEF1060F18D9033B85
:102310004FF0FF3E0EFA0CFC21EA0C0199400EFA38
:1023200003F322EA0303194300280BDB0901C9B2B6
:1023300000F1604000F5614080F800135DF804FB97
:102340000023E5E700F00F000901C9B2024B195460
:10235000F4E700BF00ED00E014ED00E0002807DB2B
:1023600000F01F02400901239340024A42F8203046
:10237000704700BF00E100E00138B0F1807F0BD270
:102380004FF0E0235861054AF02182F82310002025
:10239000986107221A6170470120704700ED00E044
:1023A00070B582B00024A446A6E0804DAA4210D0A9
:1023B00007D97F4DAA420CD005F58035AA4208D036
:1023C00013E0A5F58015AA4203D005F57025AA42B1
:1023D00007D18A68002A58D0012A51D043610824C5
:1023E00003E0A5F58015AA42F3D0BEF1FF0F4ED849
:1023F0000646BEF1FF0F4CD84FEA8C0233680F251A
:10240000954023EA050304FA02F2134333604B6854
:1024100013F0805F6ED0674B9A6942F001029A61B7
:102420009B6903F001030193019B4FEA9C02951CF9
:10243000614B53F825600CF003039D000F23AB4064
:1024400026EA03065D4B984229D003F58063984243
:1024500000F08E8003F58063984200F08B8003F5D6
:102460008063984219D004231AE0CC68BDE7CC6899
:102470000434BAE7CC680834B7E7CC680C34B4E766
:1024800003610824B1E70024AFE70424ADE7061D8B
:10249000AFE7ACF108029200B0E7032300E00023AD
:1024A000AB4033430232444D45F822304B6813F4BD
:1024B000803F61D0424A136843EA0E0313604B68C1
:1024C00013F4003F5ED03E4A536843EA0E03536064
:1024D0004B6813F4801F5BD0394A936843EA0E03BC
:1024E00093604B6813F4001F58D0354AD36843EA11
:1024F0000E03D3600CF1010C0A6832FA0CF353D0CE
:10250000012303FA0CF302EA030E33EA0202F1D1CB
:102510004A68122A3FF649AF122A3FF666AF01A574
:1025200055F822F0D32300086B2400087524000816
:1025300087240008EB230008EB230008EB230008A6
:10254000EB230008EB230008EB230008EB23000833
:10255000EB230008EB230008EB230008EB23000823
:10256000EB230008EB2300086F2400087B240008FD
:10257000012395E7022393E7114A136823EA0E0328
:1025800013609CE70E4A536823EA0E0353609FE7EB
:102590000B4A936823EA0E039360A2E7084AD368C4
:1025A00023EA0E03D360A5E702B070BD000022103D
:1025B00000003110001002400000014000080140FE
:1025C000000401400AB101617047090401617047CC
:1025D000C36801EA030221EA030141EA0241016101
:1025E0007047000008B5054B5B69034200D108BD88
:1025F000024B5861FEF708FEF9E700BF00040140F6
:1026000003685A6912F4806F01D1002070476FF49B
:1026100080625A6100230363202280F83D2080F805
:102620003E30026C42F00402026480F83C3001202B
:1026300070472DE9F04107460D4690461E4624E0BE
:10264000FFF762FA069BC01AB04200D8EEB9002329
:102650003B63202287F83D2087F83E303A6C42F0F9
:1026600020023A6487F83C3001201EE03B689C69F8
:1026700025EA040C1FFA8CFCBCFA8CFC4FEA5C1CAB
:10268000E04511D1B6F1FF3FDAD1C5F30743012B85
:10269000ECD13B685B6925EA030C1FFA8CFCBCFAA1
:1026A0008CFC4FEA5C1CEBE70020BDE8F0812DE9D3
:1026B000F04105460E46174698463DE01A6842F43A
:1026C00000721A602B686FF480625A6100232B63DA
:1026D000202285F83D2085F83E302A6C42F0040225
:1026E0002A6485F83C30012034E0FFF70DFAA0EBB6
:1026F0000800B84200D8FFB900232B63202285F8D8
:102700003D2085F83E302A6C42F020022A6485F88C
:102710003C3001201EE02B689C6926EA0404A4B228
:10272000003C18BF0124A4B12B685A6912F4806FD1
:10273000C4D1B7F1FF3FD8D1C6F30743012BEAD18B
:102740002B685C6926EA0404A4B2003C18BF01248B
:10275000E9E70020BDE8F08170B504460D46164655
:1027600023685B6913F0800F1CD12046FFF748FFF8
:10277000D0B9B5F1FF3FF3D0FFF7C6F9801BA842EF
:1027800001D8002DECD100232363202284F83D20C2
:1027900084F83E30226C42F02002226484F83C30FF
:1027A000012000E0002070BD0120FCE72DE9F0438E
:1027B00085B004460D4691461F46DDF830800D9EDB
:1027C0000368196841F4807119600096434600223D
:1027D0004FF00111FFF72DFF60B9236805F0FE05EA
:1027E0001D613346424626492046FFF760FF68B127
:1027F000012008E023681B6813F4807F02D04FF4A7
:1028000000732364032005B0BDE8F0830023039325
:1028100023685A6903929B690393039B324641469E
:102820002046FFF799FF30B9012F0FD123685FFAD7
:1028300089F61E61E7E7236C042B01D00120E2E753
:102840002268136843F400731360F7E723684FEAC4
:1028500019221A61324641462046FFF77DFF20B912
:1028600023685FFA89F61E61CDE7236C042B01D043
:102870000120C8E72268136843F400731360F7E788
:102880000200010070B504460D46164623685B69D8
:1028900013F0040F1CD12046FFF7B2FED0B9B5F1FA
:1028A000FF3FF3D0FFF730F9801BA84201D8002D7D
:1028B000ECD100232363202284F83D2084F83E30AD
:1028C000226C42F02002226484F83C30012000E0B7
:1028D000002070BD0120FCE7002800F0CC8070B51E
:1028E000044690F83D30002B77D0242384F83D3007
:1028F0002268136823F0010313602268136843F40D
:10290000004313602268136823F40043136000F04F
:1029100085FC62685A4B9A4264D85A4B98428CBFE5
:1029200000230123002B40F0A8805749A1FB003170
:102930008B0C25686A6822F03F0242EA91426A6085
:1029400021680A6A22F03F0266684D4DAE424FD8B8
:10295000013313430B622168CA6922F44F4222F00B
:10296000FF026668464B9E424CD8431E7600B3FB7E
:10297000F6F3013340F6FC70034278D0C3F30B0347
:102980001343CB6121680B6823F0C003E269206A1E
:10299000024313430B6021688B6823F4034323F045
:1029A000FF032269E068024313438B602168CB6810
:1029B00023F0FF036269A06902431343CB602268DE
:1029C000136843F00103136000202064202384F87F
:1029D0003D30206384F83E0070BD80F83C30FEF747
:1029E000E1FB82E7294B98428CBF0023012399E742
:1029F0004FF4967505FB03F3254DA5FB03539B0987
:102A00000133A6E7A368BBB9451E06EB460CB5FB30
:102A1000FCF50135C5F30B05B5FA85F56D0945BB28
:102A2000C3B9013806EB4603B0FBF3F30133C3F33C
:102A30000B0343F40043A3E7451E06EB860C0CEBA7
:102A40008C0CB5FBFCF50135C5F30B05B5FA85F526
:102A50006D09E4E7013806EB860303EB8303B0FB63
:102A6000F3F30133C3F30B0343F4404388E7042338
:102A700086E7012384E7012070470120ACE700BF0F
:102A8000A08601007F841E0083DE1B43FF083D00FB
:102A9000D34D62102DE9F04383B004460F469046B3
:102AA00099460C9EFFF730F8054694F83D00C0B2F9
:102AB000202803D0022003B0BDE8F083009519233D
:102AC00001224B492046FFF7B4FD002840F08980E1
:102AD00094F83C30012B00F08680012384F83C30D0
:102AE00023681A6812F0010F03D11A6842F001023C
:102AF0001A602268136823F400631360212384F8AA
:102B00003D30402384F83E30002323640A9B6362F7
:102B1000BDF82C306385638D2385364BE3620195C8
:102B200000964B46424639462046FFF73FFE0028B6
:102B30005BD1238D002B35D02A4631462046FFF746
:102B40000BFE20BB626A236812781A61626A531C0A
:102B50006362218D013989B22185638D9BB2013B6E
:102B60009BB263852368586910F0040FE1D00029F7
:102B7000DFD052781A61636A01336362238D013BAF
:102B80002385638D9BB2013B9BB26385D1E7236CA8
:102B9000042B01D001208EE72268136843F40073F0
:102BA0001360F7E72A4631462046FFF76BFE50B127
:102BB000236C042B01D001207DE72268136843F4C5
:102BC00000731360F7E72268136843F4007313601F
:102BD000202384F83D30002384F83E3084F83C30D4
:102BE00069E7022067E7022065E7012063E700BF8D
:102BF000020010000000FFFF82B0084B1B68084A6B
:102C0000A2FB03235B0A00FB03F3019300BF019BBC
:102C10005A1E0192002BF9D102B070471C0000200F
:102C2000D34D6210002800F0F18170B582B00446E7
:102C3000036813F0010F2CD0994B5B6803F00C0371
:102C4000042B1DD0964B5B6803F00C03082B12D0AD
:102C50006368B3F5803F41D0002B55D103F1804329
:102C600003F504331A6822F480321A601A6822F4D9
:102C700080221A6037E08A4B5B6813F4803FE7D00C
:102C8000874B1B6813F4003F03D06368002B00F0F0
:102C9000BF81236813F0020F75D0814B5B6813F07E
:102CA0000C0F5FD07E4B5B6803F00C03082B54D0F5
:102CB0002369002B00F08A807A4B01221A60FEF70C
:102CC00023FF0546764B1B6813F0020F75D1FEF704
:102CD0001BFF401B0228F5D903209EE1704A1368B0
:102CE00043F480331360636843B3FEF70DFF05467A
:102CF0006B4B1B6813F4003FCBD1FEF705FF401B65
:102D00006428F5D9032088E1B3F5A02F09D0644BDE
:102D10001A6822F480321A601A6822F480221A603B
:102D2000E1E703F18043A3F53C331A6842F48022C3
:102D30001A601A6842F480321A60D4E7FEF7E4FEA3
:102D40000546574B1B6813F4003FA2D0FEF7DCFE8C
:102D5000401B6428F5D903205FE1514B5B6813F4F5
:102D6000803FA5D14E4B1B6813F0020F03D023699F
:102D7000012B40F04F814A4A136823F0F803616940
:102D800043EAC1031360236813F0080F33D0A3692B
:102D9000002B5CD0434B0122C3F88024FEF7B4FE25
:102DA00005463F4B5B6A13F0020F21D1FEF7ACFEE4
:102DB000401B0228F5D903202FE1394A136823F07C
:102DC000F803616943EAC1031360DCE7354B002275
:102DD0001A60FEF799FE0546314B1B6813F0020F8F
:102DE000D1D0FEF791FE401B0228F5D9032014E153
:102DF0000120FFF701FF236813F0040F00F0968015
:102E0000274BDB6913F0805F34D1254BDA6942F040
:102E10008052DA61DB6903F080530193019B012545
:102E2000214B1B6813F4807F26D0E368012B3DD033
:102E3000002B53D103F1804303F504331A6A22F0C7
:102E400001021A621A6A22F004021A6233E0154B78
:102E50000022C3F88024FEF757FE0546104B5B6A3C
:102E600013F0020FC7D0FEF74FFE401B0228F5D922
:102E70000320D2E00025D3E70B4A136843F48073A4
:102E80001360FEF741FE0646074B1B6813F4807F74
:102E9000CBD1FEF739FE801B6428F5D90320BCE0B6
:102EA0000010024000004242007000405F4A136A76
:102EB00043F001031362E36833B3FEF725FE0646D1
:102EC0005A4B1B6A13F0020F2FD1FEF71DFE801B19
:102ED00041F288339842F3D903209EE0052B09D0B4
:102EE000524B1A6A22F001021A621A6A22F0040294
:102EF0001A62E0E74D4B1A6A42F004021A621A6A3B
:102F000042F001021A62D6E7FEF7FEFD0646474B85
:102F10001B6A13F0020F08D0FEF7F6FD801B41F28A
:102F200088339842F3D9032077E0E5B9E369002BB1
:102F300072D03E4A526802F00C02082A56D0022B88
:102F400017D03B4B00221A66FEF7DEFD0446374BD6
:102F50001B6813F0007F47D0FEF7D6FD001B022848
:102F6000F5D9032059E0314AD36923F08053D36166
:102F7000DCE72F4B00221A66FEF7C6FD05462B4BF9
:102F80001B6813F0007F06D0FEF7BEFD401B022831
:102F9000F5D9032041E0236AB3F5803F1AD02349D5
:102FA0004B6823F47413226A606A024313434B6034
:102FB0001F4B01221A66FEF7A7FD04461B4B1B6838
:102FC00013F0007F0ED1FEF79FFD001B0228F5D9FC
:102FD000032022E0154A536823F40033A1680B4311
:102FE0005360DCE7002018E0002016E0012B16D02B
:102FF0000E4B5B6803F48031226A914211D103F4D5
:103000007013626A93420ED1002006E001207047DF
:10301000012002E0012000E0002002B070BD01208C
:10302000FBE70120F9E70120F7E700BF00100240AD
:103030000000424286B0174B0FCB0DF1180C0CE983
:103040000F0040F20123ADF80430134B5B6803F02E
:103050000C02082A02D0114806B07047C3F383421D
:1030600018326A4412F8100C13F4803F0DD00A4B4A
:103070005B68C3F3404318336B4413F8143C074AAE
:1030800002FB00F0B0FBF3F0E6E7054B03FB00F0BA
:10309000E2E700BF504E00080010024000127A0024
:1030A00000093D00002800F0A08070B50D460446E0
:1030B000524B1B6803F007038B420BD24F4A136835
:1030C00023F007030B431360136803F007038B42DD
:1030D00040F08D80236813F0020F17D013F0040F17
:1030E00004D0474A536843F4E0635360236813F005
:1030F000080F04D0424A536843F460535360404A77
:10310000536823F0F003A1680B435360236813F066
:10311000010F31D06368012B20D0022B25D0384A13
:10312000126812F0020F64D035494A6822F0030297
:1031300013434B60FEF7E8FC0646314B5B6803F037
:103140000C036268B3EB820F16D0FEF7DDFC801B28
:1031500041F288339842F0D9032045E0284A1268AA
:1031600012F4003FE0D101203EE0254A126812F03F
:10317000007FD9D1012037E0204B1B6803F0070303
:10318000AB420AD91D4A136823F007032B4313608F
:10319000136803F00703AB422DD1236813F0040F2B
:1031A00006D0174A536823F4E063E1680B43536089
:1031B000236813F0080F07D0114A536823F46053B3
:1031C000216943EAC1035360FFF734FF0C4B5B688E
:1031D000C3F303130B4AD35CD8400B4B18600B4B63
:1031E0001868FEF74DFC002070BD012070470120DB
:1031F000FAE70120F8E70120F6E700BF00200240CF
:1032000000100240384E00081C000020240000205E
:10321000014B1868704700BF1C00002008B5FFF77D
:10322000F7FF044B5B68C3F30223034AD35CD84027
:1032300008BD00BF00100240484E000808B5FFF767
:10324000E7FF044B5B68C3F3C223034AD35CD84057
:1032500008BD00BF00100240484E000810B4036AC9
:10326000046A24F001040462846924F0F00C4CEA3E
:10327000021223F00A030B438261036210BC704701
:1032800010B4046A24F0100404628469036A24F40C
:10329000704C4CEA023223F0A00343EA011382612E
:1032A000036210BC7047836823F070030B4343F044
:1032B000070383607047000090F83D30DBB2012BBC
:1032C00027D1022380F83D300268D36843F0010320
:1032D000D3600368114A934210D0B3F1804F0DD0F0
:1032E000A2F59432934209D002F58062934205D050
:1032F0001A6842F001021A60002070479A6802F0D2
:103300000702062A07D01A6842F001021A6000205C
:103310007047012070470020704700BF002C01401B
:10332000704770477047704710B5044603681A69C4
:1033300012F0020F11D0DA6812F0020F0DD06FF008
:1033400002021A610123037703689B6913F0030FDC
:1033500070D0FFF7E6FF0023237723681A6912F085
:10336000040F12D0DA6812F0040F0ED06FF00402CE
:103370001A610223237723689B6913F4407F5FD08F
:103380002046FFF7CEFF0023237723681A6912F047
:10339000080F12D0DA6812F0080F0ED06FF0080292
:1033A0001A61042323772368DB6913F0030F4ED0DF
:1033B0002046FFF7B6FF0023237723681A6912F02F
:1033C000100F12D0DA6812F0100F0ED06FF010024A
:1033D0001A61082323772368DB6913F4407F3DD00B
:1033E0002046FFF79EFF0023237723681A6912F017
:1033F000010F03D0DA6812F0010F36D123681A6981
:1034000012F0800F03D0DA6812F0800F34D12368F5
:103410001A6912F0400F03D0DA6812F0400F32D16F
:1034200023681A6912F0200F03D0DA6812F0200F17
:1034300030D110BDFFF774FF2046FFF773FF8AE716
:103440002046FFF76DFF2046FFF76CFF9BE7204605
:10345000FFF766FF2046FFF765FFACE72046FFF762
:103460005FFF2046FFF75EFFBDE76FF001021A61C4
:103470002046FDF705FFC1E76FF080021A61204684
:1034800000F027F9C3E76FF040021A612046FFF70A
:103490004AFFC5E76FF020021A61204600F018F9D4
:1034A000C7E7000003681B4A90420AD0B0F1804F82
:1034B00007D0A2F59432904203D002F58062904288
:1034C00003D123F070034A681343124A90420AD092
:1034D000B0F1804F07D0A2F59432904203D002F5AC
:1034E0008062904203D123F44073CA68134323F0EF
:1034F00080034A69134303608B68C3620B6883626D
:10350000044B984202D00123436170470B69036367
:10351000F9E700BF002C014040B310B5044690F815
:103520003D30F3B1022384F83D30214651F8040BBD
:10353000FFF7B8FF012384F8463084F83E3084F862
:103540003F3084F8403084F8413084F8423084F8C9
:10355000433084F8443084F8453084F83D3000200E
:1035600010BD80F83C30FEF7F1F9DBE70120704731
:1035700010B4846824F47F4C42EA03220A4342EAEE
:103580000C02826010BC704790F83C30012B66D072
:1035900010B50446012380F83C30022380F83D300A
:1035A0000268936823F47F4323F0770393600B68EA
:1035B000602B40D022D8402B47D00BD9502B0ED1B6
:1035C000CA6849680068FFF749FE50212068FFF784
:1035D0006AFE04E0202B0CD008D9302B09D001233F
:1035E00084F83D30002084F83C0010BD0BB1102B56
:1035F000F5D119462068FFF756FEF0E7702B0ED084
:10360000B3F5005FEBD1CB684A6889680068FFF7C3
:10361000AFFF2268936843F480439360DFE7CB6891
:103620004A6889680068FFF7A3FF2268936843F03F
:1036300077039360D3E7CA6849680068FFF720FE04
:1036400060212068FFF72FFEC9E7CA684968006853
:10365000FFF704FE40212068FFF725FEBFE70220A8
:103660007047000090F83C30012B2CD010B401239F
:1036700080F83C30022380F83D3003685A689C682B
:1036800022F0700C0A6842EA0C025A6003680F4A82
:1036900093420AD0B3F1804F07D0A2F594329342FF
:1036A00003D002F58062934204D124F080044A687A
:1036B00014439C60012380F83D30002380F83C30A7
:1036C000184610BC70470220704700BF002C014014
:1036D0007047704710B504460268136923F44053DD
:1036E000C1680B43136183680269134342691A433B
:1036F0000168CB6823F4B05323F00C031343CB6071
:103700000268536923F4407381690B435361026873
:10371000134B9A4220D0FFF781FD024602EB820252
:1037200002EB820263689B00B2FBF3F20D48A0FB40
:1037300002314909642303FB11231B013233A0FB2F
:1037400003235B0903F0F00202EB011203F00F0305
:10375000216813448B6010BDFFF770FD0246DDE762
:10376000003801401F85EB512DE9F84305460F460F
:1037700016469946DDF820802C68246837EA040351
:103780000CBF4FF0010C4FF0000CB4451FD1B8F145
:10379000FF3FF1D0B8F1000F05D0FEF7B5F9A0EB6F
:1037A00009004045E8D92A68D36823F4D073D36070
:1037B0002A68536923F001035361202385F83D30C3
:1037C00085F83E30002385F83C30032000E00020DF
:1037D000BDE8F88358B310B5044690F83D300BB3FC
:1037E000242384F83D302268D36823F40053D36047
:1037F0002046FFF76FFF2268136923F4904313619B
:103800002268536923F02A0353612268D36843F482
:103810000053D36000202064202384F83D3084F8D6
:103820003E3010BD80F83C30FEF7CAF8D8E70120E2
:1038300070472DE9F04182B01E4690F83D30DBB272
:10384000202B54D104460D469046002953D0002A1F
:1038500053D090F83C30012B51D0012380F83C30FC
:1038600000230364212380F83D30FEF74DF907461D
:10387000A4F82480A4F82680A368B3F5805F05D05F
:103880004FF00008002384F83C3012E0236913B1A4
:103890004FF00008F6E7A8460025F3E738F8023BAA
:1038A0002268C3F308035360E28C92B2013A92B2E9
:1038B000E284E38C9BB273B100963B4600228021E8
:1038C0002046FFF751FFE0B9002DE7D015F8012B96
:1038D00023685A60E8E700963B46002240212046D4
:1038E000FFF742FF78B9202384F83D3000E0022042
:1038F00002B0BDE8F0810120FAE70120F8E70220DC
:10390000F6E70320F4E70320F2E7000070B50D4E60
:103910000D4D761BB61006D0002455F8043B01343B
:103920009847A642F9D1094E094D01F06BFA761B72
:10393000B61006D0002455F8043B01349847A6423F
:10394000F9D170BD405000084050000848500008B0
:1039500040500008830730B548D0541E002A3FD09D
:103960000346CAB201E0013C3AD303F8012B9D079C
:10397000F9D1032C2DD9CDB245EA05250F2C45EA06
:10398000054536D9A4F1100222F00F0C03F1200EE8
:10399000E6444FEA121C03F1100242E9045542E9E1
:1039A000025510327245F8D10CF1010214F00C0FDF
:1039B00003EB021204F00F0C13D0ACF1040323F05C
:1039C00003030433134442F8045B9342FBD10CF02D
:1039D00003042CB1CAB21C4403F8012B9C42FBD156
:1039E00030BD64461346002CF4D1F9E70346144673
:1039F000BFE71A46A446E0E7024B13B1024800F0C5
:103A000005B8704700000000193A0008002301467D
:103A10001A46184600F01AB838B5084B084D5B1B1B
:103A20009C1007D0043B1D44013C55F804399847CD
:103A3000002CF9D1BDE8384001F0EAB94C5000083B
:103A400048500008704700BF704700BF2DE9F0479D
:103A5000DFF87CA00646DAF8000098460F4691464B
:103A6000FFF7F0FF1B4B1B68D3F8484124B3656890
:103A70001F2D26DC5EB96B1C0235DAF8000063608E
:103A800044F82570FFF7E0FF0020BDE8F087012330
:103A900004EB8501C1F88890D4F88821AB401A4323
:103AA000022EC4F88821C1F80881E4D1D4F88C2111
:103AB0001343C4F88C31DEE703F5A674C3F848411C
:103AC000D5E7DAF80000FFF7BFFF4FF0FF30DCE783
:103AD00050040020644E000810B5294C21F000432A
:103AE000A34286B020DD274A934209DD02460B46F9
:103AF000FCF7E6FB02460B461046194606B010BD21
:103B000002AA00F041F800F00300012818D00228B2
:103B10002AD0F0B1DDE90423DDE9020100F060FA0A
:103B2000024601F10043E7E700240022002300944D
:103B300000F0A6FF02460B461046194606B010BD1F
:103B4000DDE90423DDE9020100F04AFA02460B46F2
:103B5000D2E70124DDE90423DDE90201009400F04D
:103B60008FFF02460B46C7E70124DDE90423DDE9A8
:103B70000201009400F084FF024601F10043BBE71C
:103B8000FB21E93FFFFFEF7F2DE9F04FDFF838C25F
:103B900021F000456545064614468FB040F3858008
:103BA0008A4A0F46954226DC7DA3D3E900230029EB
:103BB00040F3C081FCF784FB854B80469D428946DB
:103BC00000F08A8078A3D3E90023FCF779FB024652
:103BD0000B464046C4E900234946FCF771FB72A33B
:103BE000D3E90023FCF76CFB0126C4E9020130464F
:103BF0000FB0BDE8F08F774A954240F38D80764A4A
:103C000095425FDC4FEA2558A8F21648A5EB08510B
:103C10008B46FCF70DFDFCF7A1FC02460B46304637
:103C20005946CDE90823FCF74BFB00226B4BFCF710
:103C300021FF8B468246FCF7FBFC0546FCF78EFC19
:103C400002460B4650465946CDE90A23FCF738FB9D
:103C50000022624BFCF70EFF02460B46CDE90C2317
:103C600000220023FDF76EF9002800F06181002D8D
:103C70000CBF01230223022559494246019108A89D
:103C80002146009500F0D4FA002F0646AFDAD4E9B9
:103C9000000505F10041C4E90001E168A26801F1F5
:103CA0000043C4E902237642A1E700264FF0000852
:103CB0004FF00009C2E900013046C2E902890FB0A5
:103CC000BDE8F08F02460B46FCF7FAFA0026C4E97D
:103CD0000201C4E900018AE735A3D3E90023FCF718
:103CE000EFFA35A3D3E9002380468946FCF7E8FACA
:103CF00002460B464046C4E900234946FCF7E0FA79
:103D00002DA3D3E90023FCF7DBFA0126C4E9020165
:103D100030460FB0BDE8F08F00F074FF28A3D3E960
:103D2000002380468946FCF7A5FE00222D4BFCF7B8
:103D3000C9FAFCF77DFC0646FCF710FC18A3D3E992
:103D4000002382468B46CDE904ABFCF793FE024686
:103D50000B4640464946FCF7B3FA13A3D3E90023C8
:103D6000CDE9020150465946FCF784FE1F2E8046DD
:103D700089463BDC1C4B721E53F82230AB4235D0D7
:103D800002460B46DDE90201FCF79AFA02460B46B1
:103D900082468B46C4E90023AEE000BFAFF300804B
:103DA00000004054FB21F93F3163621A61B4D03DF9
:103DB0000000601A61B4D03D7370032E8A19A33BD2
:103DC00083C8C96D305FE43FFB21E93F7BD90240E6
:103DD000FB21F93FFB213941FFFFEF7F00007041DC
:103DE000E84E00080000E03F684E00082B150793DE
:103DF0004246DDE902014B46FCF762FAC1F30A5381
:103E0000C3EB1555102D8B46824671DD68A3D3E9AF
:103E10000023DDE90401FCF72DFEDDE902AB80465D
:103E2000894642464B4650465946FCF749FA0246F7
:103E30000B465046594692469B46FCF741FA42468D
:103E40004B46FCF73DFA5CA3D3E900238046894644
:103E5000DDE90401FCF70EFE42464B46FCF730FA62
:103E6000804689465046594642464B46CDE902AB0C
:103E7000FCF726FA079AC1F30A53D31A312B8B4663
:103E8000824635DD4EA3D3E90023DDE90401FCF7CA
:103E9000F1FDDDE902AB8046894642464B4650467D
:103EA0005946FCF70DFA02460B46504659469246D3
:103EB0009B46CDE902ABFCF703FA42464B46FCF7C2
:103EC000FFF941A3D3E9002380468946DDE90401D7
:103ED000FCF7D0FD42464B46FCF7F2F98046894696
:103EE0005046594642464B46FCF7EAF98B46824615
:103EF00052465B46C4E90023DDE9020152465B46B7
:103F0000FCF7DEF942464B46FCF7DAF902460B466F
:103F1000002FC4E90223BFF66AAE0BF1004301F1A2
:103F20000041A0606360E1607642C4F800A05EE6F4
:103F30000323A0E6FCF7C6F9274B80469D4289463D
:103F400016D023A3D3E90023FCF7BCF902460B46A5
:103F50004046C4E900234946FCF7B2F91CA3D3E963
:103F60000023FCF7AFF94FF0FF36C4E902013EE64B
:103F70000FA3D3E90023FCF7A5F90FA3D3E900238E
:103F800080468946FCF79EF902460B464046C4E946
:103F900000234946FCF794F907A3D3E90023FCF773
:103FA00091F94FF0FF36C4E9020120E6AFF300803B
:103FB0000000601A61B4D03D7370032E8A19A33BD0
:103FC0000000002E8A19A33BC14920259A837B3922
:103FD0003163621A61B4D03DFB21F93F000000005B
:103FE0002DE9F04F21F00046B6F1795F92469B46ED
:103FF0000C46054685B06DDAFCF71AFB002800F088
:10400000EB802A46234628462146FCF733FD76A35B
:10401000D3E9002380468946FCF72CFD74A3D3E93D
:104020000023FCF74FF942464B46FCF723FD72A3F1
:10403000D3E90023FCF744F942464B46FCF71AFD4E
:104040006FA3D3E90023FCF73DF942464B46FCF74A
:1040500011FD6DA3D3E90023FCF732F942464B462C
:10406000FCF708FD6AA3D3E90023FCF72BF94246CD
:104070004B46FCF7FFFCCDE90001002240464946D3
:10408000654BFCF7F7FCDDE9002306460F4640468A
:104090004946FCF7EFFCA846A14652465B4604465B
:1040A0000D4640464946FCF7E5FC02460B462046D5
:1040B0002946FCF705F902460B4630463946FCF71F
:1040C000FFF802460B4600205449FCF7F9F805B00A
:1040D000BDE8F08F02460B46FCF7CCFC42A3D3E9C7
:1040E000002380468946FCF7C5FC41A3D3E90023A1
:1040F000FCF7E8F842464B46FCF7BCFC3EA3D3E98C
:104100000023FCF7DDF842464B46FCF7B3FC3CA32A
:10411000D3E90023FCF7D6F842464B46FCF7AAFC4D
:1041200039A3D3E90023FCF7CBF842464B46FCF712
:10413000A1FC37A3D3E90023FCF7C4F84B46424661
:10414000FCF798FC364BCDE900019E4295DD354BDE
:1041500000229E423ADCA6F5001300202F491646A5
:104160001F46FCF7ADF8CDE9020100224046494662
:10417000294BFCF77FFC32463B46FCF7A1F8DDE912
:10418000002306460F4640464946FCF773FCA84606
:10419000A14652465B4604460D4640464946FCF75A
:1041A00069FC02460B4620462946FCF789F8024680
:1041B0000B4630463946FCF783F802460B46DDE9EC
:1041C0000201FCF77DF805B0BDE8F08F164B002624
:1041D000CDE90223154FC8E70020104905B0BDE81E
:1041E000F08F00BFAFF30080D43888BEE9FAA8BDD5
:1041F000C4B1B4BD9EEE213EAD529C804F7E923E36
:104200009015CB19A001FA3E7751C1166CC1563FEB
:104210004C5555555555A53F0000E03F0000F03F77
:104220003233D33F0000E93F0000E73F0000D23FB8
:104230002DE9F04FADF5197DB84CA29D089354F8C7
:104240002540013B12F1140F074605940B9103938F
:10425000C0F24283B249D31E81FB0301DB17C3EBDB
:10426000A10307930133A3EB8303DB00D318069369
:10427000079A039BD61A059A12EB03091BD409F17E
:10428000010900240025DDF88CA2B1440DF180085D
:1042900008E05AF82600FCF761F901364E45E8E8D7
:1042A000020108D0002EF4DA2046294601364E4598
:1042B000E8E80201F6D1059B002BC0F2BC83089B05
:1042C00020AA02EBC30ADA000292059AA7F10801BC
:1042D0001A44DDF80C9004910DF5E07B019201EB9E
:1042E000C308039B002BC0F2AE8157460024002573
:1042F000049E77E90223F6E90201FCF7BBFB0246C4
:104300000B4620462946FBF7DDFF464504460D4691
:10431000EFD1019B09F101099945EBE802450AF14A
:10432000080ADED1049BDDF808B00BAA9B44059B6C
:1043300002EB83020A920CAA019302EB8303083B6F
:104340000993019A98AB03EBC203002A53E928456D
:1043500029DD0DF5E07A0DF130090AEBC2080022E3
:10436000704B20462946FCF785FBFCF761F9FCF70A
:10437000F5F800226C4B06460F46FCF77BFB024625
:104380000B4620462946FBF79BFFFCF751F978E9DD
:10439000022349F8040B39463046FBF793FFD0451A
:1043A00004460D46DBD1DDF81890204629464A46E2
:1043B00000F0AAFC00224FF07F5304460D46FCF7A4
:1043C00059FB00F025FC0022584BFCF753FB02463A
:1043D0000B4620462946FBF773FF0D460446FCF7C3
:1043E00027F98046FCF7BAF80B46024629462046D4
:1043F000FBF766FF4B46002B06460F4640F39880BE
:10440000019A0CA9013A51F82250C9F1180345FA52
:1044100003F101FA03F3ED1A0CAB43F82250C9F192
:1044200017031D41002D884400F38C8000220023D7
:1044300030463946FCF786FD002800F05482019B87
:10444000059A03F1FF3A524510DC002203F1804344
:10445000013B0CA90A9801EB830353F8041983422A
:1044600042EA0102F9D1002A40F0F080059B0CAA33
:10447000013B52F82330002B40F0E0800123099AE1
:1044800052F8041901330029FAD0019AD318029383
:10449000531C9946DDF80480089A9044079A02EB71
:1044A000030A0AF1804AA39A0AF1FF3A02EB8A0A48
:1044B00020AA02EBC80870AA02EBC30301935AF8C2
:1044C000040FFCF74BF8039B4746002B08F1080844
:1044D00048E902011FDB00240025049E083F01E09B
:1044E00077E80201F6E90223FCF7C4FA02460B461C
:1044F00020462946FBF7E6FE5E4504460D46EFD111
:10450000019B09F10109E3E802450193029B9945EA
:10451000D5DD019315E700240025F1E730500008B0
:10452000ABAAAA2A0000703E0000704100002040A3
:104530006BD1019B0CAA013B52F82350ED15002DC5
:104540007FF774AF019B08F10108002B40F3C9818C
:104550000C9C002C51D1019B012B20D001220CABD3
:1045600053F8044F002C4BD0531C0CA9C4F1807499
:1045700041F822400199994210DD0CAC0CAA52F886
:1045800023206FF07F4004EB830304EB810100E004
:104590001A68821A43F8042B8B42F9D10124069B36
:1045A000002B0EDD012B00F08C81022B09D1019B29
:1045B0000CA95A1E0CAB53F82230C3F3150341F873
:1045C0002230022D7FF432AF32463B4600207A493A
:1045D000FBF776FE06460F46002C3FF427AF069AFF
:1045E0000020754900F090FB02460B4630463946E4
:1045F000FBF766FE06460F4618E701230022B4E7E4
:10460000019901328A42ABD1C9E700226B4BFCF71A
:10461000B7FC054600283FF409AF019B08F10108EB
:10462000002BC8BF022593DC32463B46002062497E
:10463000FBF746FE022506460F46F7E6019B0133CF
:104640009946029326E70024002562E6069B03951F
:10465000A3F118020CAB53F82A30CDF81C80069257
:1046600073B9019B0CA903F18043023B01EB830367
:1046700053F804190AF1FF3A183A0029F8D00692C3
:104680000020069A4C4900F03FFBBAF1000F0446A7
:104690000D46C0F2D7814FF0000870AB03EBCA0B98
:1046A0000CAA0AF10103069302EB8306DFF81091CE
:1046B0004FEACA0304930BF1080756F8040DFBF701
:1046C0004DFF22462B46FCF7D5F94B4667E9020120
:1046D000424620462946FCF7CDF90CAB9E420446E3
:1046E0000D46EAD148ABCDE9013ADDF814A04FF010
:1046F0000009BAF1000F2CDB2DA3D3E900235F469C
:10470000002600240025DFF8BC8003E0B14510DB63
:10471000F8E80223F7E80201FCF7ACF902460B4681
:1047200020462946FBF7CEFD0136B24504460D462C
:10473000ECDA019B029A03EBC9039145C3E90045FA
:10474000ABF1080B09F1010306D0BAF1000F99464D
:10475000D2DA00240025ECE7A29BDDF808A0022BAA
:1047600032DC002B00F3F28018D1A29B049D1C4682
:10477000019E08353544184675E902232146FBF7AA
:10478000A1FDAE4203460C46F5D1039A0AB104F1ED
:104790000044184621460B9BC3E90001079B03F028
:1047A00007000DF5197DBDE8F08F00BFAFF3008065
:1047B00000000040FB21F93F0000F03F0000E03F17
:1047C0000000703EF84F0008A29B032BE6D1BAF11F
:1047D000000F00F04D81019B049A13449B46D3E9DE
:1047E00000455BE902672046294632463B46FBF717
:1047F00069FDA046A94604460D4622462B46304692
:104800003946FBF75DFD4B464246FBF75BFDCBE9C6
:1048100000016BE90245019B5B45E2D1BAF1010F52
:1048200040F32681049B019A0DF5947B13449A462C
:10483000D3E9004502935AE90267204629463246E9
:104840003B46FBF73FFDA046A94604460D462246DF
:104850002B4630463946FBF733FD42464B46FBF7C5
:1048600031FDCAE900016AE90245D345E3D10023DD
:104870001E46029C019A083402F11005184674E99C
:1048800002233146FBF71EFDA54203460E46F5D135
:10489000039A002A40F0A480184631460B9C019BE5
:1048A000C4E90401D3E90223C4E90223DDE9482372
:1048B000C4E90023079B03F007000DF5197DBDE84F
:1048C000F08F019B0CA95A1E0CAB53F82230C3F396
:1048D000160341F8223074E600216FF017030791A8
:1048E000C4E400245BE6069C3046394662420395E8
:1048F000CDF81C8000F008FA00225F4B06460F46F8
:10490000FCF73EFB002861D000225C4B1834304697
:1049100039460694FCF7AEF8FBF78AFE0446FBF72F
:104920001DFE0022544BFCF7A5F80B460246394603
:104930003046FBF7C5FCFBF77BFE019D0CAB05F198
:10494000010A43F8250043F82A4099E60026344638
:10495000019F069B07EBC305304675E902232146FC
:10496000FBF7B0FCAF4206460C46F5D1039B002B8B
:1049700050D13046214623460B9C3246C4E9000103
:10498000DDE94801FBF79CFCBAF1000F03460E4637
:1049900010DD012448AD1846F5E902233146FBF746
:1049A00091FC0134A24503460E46F4DA039A0AB19B
:1049B00006F10046184631460B9BC3E90201079BEE
:1049C00003F007000DF5197DBDE8F08F304639463C
:1049D000FBF72EFE019B0CAA9A4642F823004FE6F5
:1049E0000B9D019C06F100466E6126462068A26878
:1049F00064682B6104F10041F468C5E9000104F129
:104A00000043C5E90223079B03F007000DF5197D5C
:104A1000BDE8F08F0B9804F1004106603246234652
:104A20004160DDE94801FBF74BFCBAF1000F03469A
:104A30000E46AEDCBCE7A7F108030493089BDB003D
:104A400002936FE4A29B022B06DC002B0DDC7FF4AB
:104A5000A5AEA29B1C4698E6A29B032B7FF49EAEBC
:104A6000002348AA1E46019212E7002634467DE73D
:104A700000231E460CE700BF000070410000703E9E
:104A80002DE9F04F85B0CDE9022321F00043B3F1C9
:104A9000795F8246019104DAFBF7CAFD002800F035
:104AA0008E80019B524619465046FBF7E3FF0446B1
:104AB0000D46019B2246194650462B46FBF7DAFF6E
:104AC00043A3D3E9002306460F4620462946FBF7B9
:104AD000D1FF41A3D3E90023FBF7F2FB22462B468B
:104AE000FBF7C8FF3EA3D3E90023FBF7EBFB22460D
:104AF0002B46FBF7BFFF3CA3D3E90023FBF7E0FB0A
:104B000022462B46FBF7B6FF39A3D3E90023FBF778
:104B1000D9FB0E9B80468946BBB3DDE9020100222A
:104B2000374BFBF7A7FF42464B4680468946304647
:104B30003946FBF79FFF02460B4640464946FBF7C6
:104B4000BFFB22462B46FBF795FFDDE90223FBF76F
:104B5000B7FB29A3D3E9002304460D463046394666
:104B6000FBF788FF02460B4620462946FBF7AAFBC7
:104B700002460B4650460199FBF7A2FB82468B4644
:104B80005046594605B0BDE8F08F02460B46204618
:104B90002946FBF76FFF18A3D3E90023FBF790FB2F
:104BA00032463B46FBF766FF5246019BFBF78AFB0A
:104BB00082468B465046594605B0BDE8F08FDDF879
:104BC00004B05046594605B0BDE8F08FAFF3008001
:104BD0007CD5CF5A3AD9E53DEB9C2B8AE6E55A3E87
:104BE0007DFEB157E31DC73ED561C119A0012A3F23
:104BF000A6F810111111813F495555555555C53F1E
:104C00000000E03F21F00041704700BF00000000BD
:104C1000C1F30A52F8B5A2F2FF35132D0B468446B4
:104C20000C46064630DC002D1EDB354F2F4101EAD5
:104C30000702024315D030A3D3E90023FBF742FB60
:104C400000220023FCF7A6F948B1002C04DA4FF447
:104C5000801343FA05F52C44002624EA0704234672
:104C6000B44660461946F8BD23A3D3E90023FBF7F9
:104C700029FB00220023FCF78DF90028EFD0002C3F
:104C800024DB00263446EAE7332D08DDB5F5806FD6
:104C9000E7D10246FBF716FB84460B46E1E74FF0EF
:104CA000FF37A2F21342D7400742DAD012A3D3E96A
:104CB0000023FBF707FB00220023FCF76BF9002819
:104CC000CDD0002C0BDB26EA0706C8E724F0004312
:104CD0000C4A1E43002E18BF14460026BFE7142DB1
:104CE00008D00123C5F1340503FA05F5AE1928BF34
:104CF000E418E8E70134E6E79C7500883CE4377E79
:104D0000FFFF0F000000F0BFC1F30A5370B58C46DF
:104D100004460D4616467BBB034621F0004C5CEA78
:104D2000030328D0324B0022FBF7A4FE314B04468C
:104D30009E420D461ADB8C46C1F30A53363B40F2C5
:104D4000FE723344934220DC002B3EDC13F1350F1E
:104D50002CDA4CF250339E4217DC05F0004343F04E
:104D6000D27141F4B731244841F01F011CA3D3E9AB
:104D70000023FBF77FFE70BD40F2FF7E7345DED15E
:104D800002460B46FBF79EFA70BD05F0004343F068
:104D9000FC4141F45F1141F4105113A3D3E9002306
:104DA000164841F03C01FBF765FE70BD2CF0FF4C4E
:104DB00003F136012CF4E00C4CEA015500222046A8
:104DC00029460F4BFBF756FE70BD2CF0FF4C2CF420
:104DD000E00C20464CEA035170BD00BFAFF30080E9
:104DE00059F3F8C21F6EA5019C7500883CE4377E1C
:104DF00000005043B03CFFFF59F3F8C29C75008897
:104E00000000903CF8B500BFF8BC08BC9E46704757
:0C4E1000F8B500BFF8BC08BC9E46704717
:104E2000000000000100000001000000000020411F
:104E300073746172740D0A0000000000000000002D
:104E40000102030406070809000000000102030430
:104E500002030405060708090A0B0C0D0E0F1010BB
:104E60000000000028000020FB21F93FFB21094041
:104E70007CD91240FB2119407A6A1F407CD922401C
:104E8000BBFD2540FB2129403A462C407A6A2F4041
:104E90005C4731407CD932409C6B3440BBFD35408F
:104EA000DB8F3740FB2139401BB43A403A463C4047
:104EB0005AD83D407A6A3F404C7E40405C47414072
:104EC0006C1042407CD942408CA243409C6B4440D1
:104ED000AC344540BBFD4540CBC64640DB8F474028
:104EE000EB584840FB21494083F9A200444E6E0034
:104EF000FC291500D1572700DD34F50062DBC00026
:104F00003C999500419043006351FE00BBDEAB002D
:104F1000B761C5003A6E2400D24D42004906E00058
:104F200009EA2E001C92D100EB1DFE0029B11C00E5
:104F3000E83EA700F535820044BB2E009CE98400C2
:104F4000B4267000417E5F00D6913900538339004A
:104F50009CF439008B5F840028F9BD00F81F3B00EA
:104F6000DEFF97000F980500112FEF000A5A8B0003
:104F70006D1F6D00CF7E360009CB2700464FB7006E
:104F80009E663F002DEA5F00BA277500E5EBC7007B
:104F90003D7BF100F739070092528A00FB6BEA0073
:104FA0001FB15F00085D8D00300356007BFC46009A
:104FB000F0AB6B0020BCCF0036F49A00E3A91D00D3
:104FC0005E619100081BE60085996500A0145F00F2
:104FD0008D40680080D8FF0027734D000606310021
:104FE000CA561500C9A873007BE260006B8CC00034
:104FF00000000040FB21F93F000000002D44743EFA
:10500000000000809846F83C0000006051CC783BDE
:1050100000000080831BF0390000004020257A3812
:10502000000000802282E336000000001DF3693595
:105030000200000003000000040000000600000061
:08504000F939000835010008F0
:04504800110100084A
:10504C00AE001040B081FFA1A6A83FC8D300D58008
:10505C00D805D9F1DA12D8308D14AF000024F40041
:10506C0001000000100000000000000014030020EC
:10507C007C030020E403002000000000000000007E
:10508C000000000000000000000000000000000014
:10509C000000000000000000000000000000000004
:1050AC0000000000000000000000000000000000F4
:1050BC0000000000000000000000000000000000E4
:1050CC0000000000000000000000000000000000D4
:1050DC0000000000000000000000000000000000C4
:1050EC0000000000000000000000000000000000B4
:1050FC0000000000000000000000000000000000A4
:10510C000000000000000000000000000000000093
:10511C0001000000000000000E33CDAB34126DE630
:10512C00ECDE05000B000000000000000000000099
:10513C000000000000000000000000000000000063
:10514C000000000000000000000000000000000053
:10515C000000000000000000000000000000000043
:10516C000000000000000000000000000000000033
:04549C005006002096
:0400000508001A35A0
:00000001FF
